:100000000C94DB010C947C040C94A9040C94030262
:100010000C9403020C9403020C9403020C94C20E81
:100020000C9403020C9403020C9403020C9403023C
:100030000C9403020C9403020C9403020C9403022C
:100040000C94D6040C9403020C94AB0C0C94030295
:100050000C9403020C9403020C9403020C9403020C
:100060000C94CE020C940302072C7AA5BA6CC590AE
:10007000DA3B9365FC8BBC53F810FD3C5692834DE4
:10008000BD879D3AB63DCBC9BF5BBE73DA0FC93F92
:1000900005A84CCDB2D44EB93836A9020C50B9914E
:1000A0008688083CA6AAAA2ABE000000803F00005D
:1000B0000000240027002A0000000000250028007E
:1000C0002B00000000002300260029000404040483
:1000D00004040404020202020202030303030303F2
:1000E00001020408102040800102040810200102CF
:1000F00004081020000000070002010000030406AD
:100100000000000000000000024B4A4A49494848EC
:1001100047474646454444444343424241414040A8
:100120003F3F3F3E3E3D3D3D3C3C3B3B3B3A3A3A08
:100130003939393838383737373636363535353452
:10014000343434333333323232323131313130308E
:1001500030302F2F2F2F2E2E2E2E2E2D2D2D2D2CBD
:100160002C2C2C2C2B2B2B2B2B2A2A2A2A2A2A29E3
:100170002929292928282828282827272727272701
:10018000262626262626262525252525252524241A
:10019000242424242423232323232323232222222D
:1001A000222222222221212121212121212120203C
:1001B000202020202020201F1F1F1F1F1F1F1F1F48
:1001C0001F1E1E1E1E1E1E1E1E1E1E1D1D1D1D1D53
:1001D0001D1D1D1D1D1D1C1C1C1C1C1C1C1C1C1C59
:1001E0001C1C1B1B1B1B1B1B1B1B1B1B1B1B1B1A5E
:1001F0001A1A1A1A1A1A1A1A1A1A1A1A1A19191962
:100200001919191919191919191919191818181862
:100210001818181818181818181818181817171761
:100220001717171717171717171717171717161660
:10023000161616161616161616161616161616165E
:10024000161615151515151515151515151515155C
:100250001515151515151514141414141414141457
:10026000141414141414141414141414141414134F
:10027000131313131313131313131313131313134E
:100280001313131313131313131212121212121245
:10029000121212121212121212121212121212123E
:1002A0001212121212121111111111111111111138
:1002B000111111111111111111111111111111112E
:1002C0001111111111111110101010101010101027
:1002D000101010101010101010101010101010101E
:1002E0001010101010101010101010100F0F0F0F12
:1002F0000F0F0F0F0F0F0F0F0F0F0F0F0F0F0F0F0E
:100300000F0F0F0F0F0F0F0F0F0F0F0F0F0F0F0FFD
:100310000F0F0F0F0F0F0E0E0E0E0E0E0E0E0E0EF7
:100320000E0E0E0E0E0E0E0E0E0E0E0E0E0E0E0EED
:100330000E0E0E0E0E0E0E0E0E0E0E0E0E0E0E0EDD
:100340000E0E0E0E0E0E0D0D0D0D0D0D0D0D0D0DD7
:100350000D0D0D0D0D0D0D0D0D0D0D0D0D0D0D0DCD
:100360000D0D0D0D0D0D0D0D0D0D0D0D0D0D0D0DBD
:100370000D0D0D0D0D0D0D0D0D0D0D0D0D0D0C0CAF
:100380000C0C0C0C0C0C0C0C0C0C0C0C0C0C0C0CAD
:100390000C0C0C0C0C0C0C0C0C0C0C0C0C0C0C0C9D
:1003A0000C0C0C0C0C0C0C0C0C0C0C0C0C0C0A009B
:1003B0004B08510E3F1211241FBECFEFD8E0DEBF15
:1003C000CDBF12E0A0E0B1E0E2E7FFE402C005909B
:1003D0000D92A434B107D9F715E0A4E4B2E001C04E
:1003E0001D92A239B107E1F713E0C6EBD3E004C0D8
:1003F0002297FE010E949821C03BD107C9F70E94B5
:10040000A1130C94B7270C94000010926802449A30
:10041000459AE9EBF0E080818E7F808380818D7F3B
:10042000808388E48093B80085E48093BC000895BD
:10043000880F8093BA000895413210F040E02FC039
:10044000909168029923E1F791E0909368029FEF01
:100450009093670210924502942F91509093460218
:10046000880F81608093440285EE8093BC00809168
:1004700068028130E1F380914502841710F44091C5
:10048000450280E090E009C0FB01E80FF91FDC01A4
:10049000A95BBD4F2C91208301968417A8F3842F6C
:1004A0000895413210F081E00895909168029923F7
:1004B000E1F792E0909368029FEF909367021092A9
:1004C000450240934602DB01E7E4F2E050E04E0FC4
:1004D0005F1F02C09D919193E417F507D9F790E053
:1004E000880F991F8093440285EE8093BC002223DD
:1004F00099F080916802823079F4FBCF8091670295
:10050000803211F482E0089580916702803311F007
:1005100084E0089583E00895809167028F3F71F72A
:1005200080E00895613210F081E008952091680222
:10053000243011F082E0089560938D02DC01E0E93F
:10054000F2E070E06E0F7F1F02C08D918193E6177D
:10055000F707D9F780E0089590938B0280938A0281
:10056000089590938F0280938E020895882311F04E
:1005700085EC01C085E88093BC00089585ED8093EB
:10058000BC008091BC0084FDFCCF109268020895ED
:1005900085EC8093BC001092680208951F920F9220
:1005A0000FB60F9211242F933F934F935F936F9346
:1005B0007F938F939F93AF93BF93EF93FF9380911C
:1005C000B90090E0887F90708036910509F4DFC013
:1005D00081369105E4F58832910509F47EC08932AF
:1005E0009105C4F48031910509F472C081319105FF
:1005F00044F4009709F434C18830910509F03BC1F7
:1006000067C08831910509F468C08032910509F00E
:1006100032C17EC08034910509F4A0C081349105B7
:100620004CF48033910509F47EC08833910509F0BC
:1006300022C184C08035910509F484C088359105B4
:1006400009F491C08834910509F015C198C0883922
:10065000910509F4FDC089399105ECF488379105BD
:1006600009F495C0893791054CF48836910509F451
:100670008EC08037910509F0FEC089C08838910589
:1006800009F4E6C08039910509F487C080389105E6
:1006900009F0F1C082C0803B910509F4B0C0813BF4
:1006A00091054CF4803A910509F489C0883A910586
:1006B00009F0E1C0A4C0803C910509F4CDC0883C9C
:1006C000910509F4C9C0883B910509F0D4C0ACC0BC
:1006D000809144028093BB00B9C090914502809103
:1006E0004602981768F480914502E82FF0E0E95B34
:1006F000FD4F90819093BB008F5F80934502A6C011
:1007000085ED8093BC008091BC0084FDFCCFB1C01E
:1007100080E28093670285ED8093BC008091BC00ED
:1007200084FDFCCFA6C080E38093670285ED8093B3
:10073000BC008091BC0084FDFCCF9BC088E380930B
:1007400067028AC0809145029091BB00E82FF0E0DB
:10075000E95BFD4F90838F5F809345029091450246
:100760008091460271C0809145029091BB00E82FB4
:10077000F0E0E95BFD4F90838F5F8093450285ED4C
:100780008093BC008091BC0084FDFCCF72C083E0EC
:10079000809368021092690259C080916902803288
:1007A00008F056C0809169029091BB00E82FF0E0FC
:1007B000E659FD4F90838F5F8093690247C0809117
:1007C0006902803230F4E0916902F0E0E659FD4FB1
:1007D000108285ED8093BC008091BC0084FDFCCF2D
:1007E0001092680260916902E0918A02F0918B0296
:1007F0008AE692E070E00995109269022DC084E0CB
:100800008093680210928C0210928D02E0918E0209
:10081000F0918F02099580918D02882329F481E05F
:1008200080938D021092900280918C02E82FF0E06C
:10083000E057FD4F90819093BB008F5F80938C02B7
:1008400090918C0280918D02981710F485EC01C074
:1008500085E88093BC000FC085EC8093BC0009C084
:100860001092670285ED8093BC008091BC0084FDEE
:10087000FCCF10926802FF91EF91BF91AF919F91D1
:100880008F917F916F915F914F913F912F910F9039
:100890000FBE0F901F9018958230E8F4E82FF0E01B
:1008A000EE0FFF1FE055FD4F71836083813041F0F3
:1008B000809169008C7F842B80936900E89A089569
:1008C00080916900440F551F440F551F837F842B6F
:1008D00080936900E99A0895823068F4813011F0BC
:1008E000E89801C0E998E82FF0E0EE0FFF1FE0550F
:1008F000FD4F1182108208951F920F920FB60F9232
:1009000011242F933F934F935F936F937F938F9314
:100910009F93AF93BF93EF93FF938091B002909119
:10092000B102009729F0E091B002F091B10209956F
:10093000FF91EF91BF91AF919F918F917F916F91B7
:100940005F914F913F912F910F900FBE0F901F908D
:1009500018951F920F920FB60F9211242F933F9369
:100960004F935F936F937F938F939F93AF93BF93B7
:10097000EF93FF938091B2029091B302009729F018
:10098000E091B202F091B3020995FF91EF91BF910E
:10099000AF919F918F917F916F915F914F913F9117
:1009A0002F910F900FBE0F901F9018951F920F92CE
:1009B0000FB60F9211242F933F938F939F93AF9372
:1009C000BF938091B8029091B902A091BA02B09100
:1009D000BB023091BC020196A11DB11D232F2D5FDA
:1009E0002D3720F02D570196A11DB11D2093BC027B
:1009F0008093B8029093B902A093BA02B093BB025D
:100A00008091B4029091B502A091B602B091B70264
:100A10000196A11DB11D8093B4029093B502A093DD
:100A2000B602B093B702BF91AF919F918F913F9162
:100A30002F910F900FBE0F901F9018958FB7F894BD
:100A40002091B8023091B9024091BA025091BB0294
:100A50008FBFB901CA0108959FB7F8942091B402DD
:100A60003091B5024091B6025091B70286B5A89B6D
:100A700006C08F3F21F02F5F3F4F4F4F5F4F9FBF0B
:100A8000542F432F322F2227280F311D411D511D76
:100A900082E0220F331F441F551F8A95D1F7B901F9
:100AA000CA010895EF92FF920F931F93CF93DF93A4
:100AB0007B018C010E942C05EB010FC00E942C05CC
:100AC0006C1B7D0B83E0683E7807C0F30894E10857
:100AD000F10801091109C851DC4FE114F1040105C5
:100AE000110561F7DF91CF911F910F91FF90EF906A
:100AF0000895019739F0880F991F880F991F029761
:100B00000197F1F70895789484B5826084BD84B527
:100B1000816084BD85B5826085BD85B5816085BDF8
:100B2000EEE6F0E0808181608083E1E8F0E0108211
:100B3000808182608083808181608083E0E8F0E052
:100B4000808181608083E1EBF0E08081846080833C
:100B5000E0EBF0E0808181608083EAE7F0E0808173
:100B600084608083808182608083808181608083D3
:100B70008081806880831092C10008958093000175
:100B800008958E3008F08E508770909100019295F4
:100B9000990F990F907C982B90937C0080917A000C
:100BA000806480937A0080917A0086FDFCCF20914A
:100BB000780030917900932F80E030E0282B392B9A
:100BC000C90108951F93CF93DF93182FEB0161E0C4
:100BD0000E944206209709F44AC0CF3FD10509F48C
:100BE00049C0E12FF0E0EC50FF4F84918330C1F019
:100BF000843028F4813051F08230B1F50CC0863059
:100C000019F1873049F1843079F514C084B58068D2
:100C100084BDC7BD33C084B5806284BDC8BD2EC04D
:100C200080918000806880938000D0938900C09379
:100C3000880024C080918000806280938000D093DF
:100C40008B00C0938A001AC08091B00080688093A6
:100C5000B000C093B30012C08091B0008062809356
:100C6000B000C093B4000AC0C038D1051CF4812F75
:100C700060E002C0812F61E00E949406DF91CF9175
:100C80001F910895282F30E0C90180529F4FFC0129
:100C90009491F901E453FF4FE491EE23B9F0F0E0B1
:100CA000EE0FFF1FE255FF4FA591B491662341F46B
:100CB0002FB7F8948C91909589238C932FBF08952A
:100CC0002FB7F8948C91892B8C932FBF0895833084
:100CD00071F0843028F48130A1F0823021F514C005
:100CE0008630B1F08730D1F08430E9F404C08091CF
:100CF00080008F7703C0809180008F7D809380007B
:100D0000089584B58F7702C084B58F7D84BD089522
:100D10008091B0008F778093B00008958091B000EB
:100D20008F7D8093B00008950F931F93DF93CF932F
:100D30000F92CDB7DEB7282F30E0F901EC50FF4F0E
:100D40008491F901E052FF4F149124533F4FF90170
:100D500004910023E1F0882321F069830E94670653
:100D60006981E02FF0E0EE0FFF1FE854FF4FA591DF
:100D7000B491662331F49FB7F8948C911095812338
:100D800004C09FB7F8948C91812B8C939FBF0F90D8
:100D9000CF91DF911F910F9108950F931F93282FEB
:100DA00030E0F901EC50FF4F8491F901E052FF4F20
:100DB000049124533F4FF9011491112319F420E0B9
:100DC00030E013C0882311F00E946706E12FF0E0A5
:100DD000EE0FFF1FEE53FF4FA591B4918C9120E0D1
:100DE00030E0802311F021E030E0C9011F910F9124
:100DF00008956F927F928F929F92AF92BF92CF92FF
:100E0000DF92FF920F931F93962F682F70E0FB01E4
:100E1000E052FF4F149164537F4FFB01F4909923EC
:100E200011F0012F01C000E0CA01B90120E83EE342
:100E300040E050E00E94F7200E943D2159016A01E4
:100E40008F2D90E0880F991F8E539F4F20E030E048
:100E5000A901FC01A591B4910AC02A153B054C05D6
:100E60005D0509F449C02F5F3F4F4F4F5F4F6C91B5
:100E70006123601791F30BC02A153B054C055D05F6
:100E800009F43AC02F5F3F4F4F4F5F4F03C0FC0143
:100E9000A591B4916C916123601771F76624772452
:100EA0004301FC01A591B49110C0C401B301620FCC
:100EB000731F841F951F6A157B058C059D05E1F046
:100EC0000894611C711C811C911C8C9181238017DA
:100ED00061F3C401B30128E032E540E050E00E9434
:100EE000F7206058714C8F4F9F4F20E83EE340E061
:100EF00050E00E943D2103C020E030E0A901B9018B
:100F0000CA011F910F91FF90DF90CF90BF90AF90DB
:100F10009F908F907F906F900895AF92BF92CF92E5
:100F2000DF92FF920F931F93CF93DF93082F162F1B
:100F3000F42EC7E0D0E0C22EDD2487E0A82EB12C2D
:100F4000FF2059F4B5016C1B7D0BC60102C09595BD
:100F500087956A95E2F7BC0107C0B6010C2E02C066
:100F6000759567950A94E2F761707070802F0E9402
:100F70009406812F61E00E949406812F60E00E9418
:100F8000940621979FEFCF3FD907D1F6DF91CF91FC
:100F90001F910F91FF90DF90CF90BF90AF90089579
:100FA000CF92DF92EF92FF920F931F93CF93DF9335
:100FB000082F162FE42EC7E0D0E0FF2497E0C92EBB
:100FC000D12C812F61E00E949406EE2071F4802FD5
:100FD0000E94CD0696012C1B3D0BAC0102C0440FB4
:100FE000551F2A95E2F7F42A0AC0802F0E94CD06E9
:100FF0000C2E02C0880F991F0A94E2F7F82A812F5D
:1010000060E00E94940621973FEFCF3FD307C9F6D7
:101010008F2DDF91CF911F910F91FF90EF90DF9077
:10102000CF90089508950895FC018081823069F081
:10103000833018F4813079F405C0833049F084306E
:1010400051F408C06093B30008956093B40008950C
:1010500067BD089568BD0895CF93DF93EC01888143
:101060009981689F9001699F300D789F300D112400
:1010700040E050E060E077E883E993E00E943D21A2
:101080002B833C834D835E831F82188619861A86C4
:10109000DF91CF9108950895E0EBF0E0908193689F
:1010A000908387708093B1001092B3008BE061E071
:1010B0000E9442060895E0EBF0E0908193629083F5
:1010C00087708093B1001092B40083E061E00E94C9
:1010D0004206089584B5836884BD17BC86E061E04C
:1010E0000E944206089584B5836284BD18BC85E0E1
:1010F00061E00E9442060895CF93DF938CE060E0A8
:101100000E94940688E060E00E949406C7E0D0E068
:1011100084E060E00E9494068091BE0290E00C2E74
:1011200002C0959587950A94E2F780FF03C088E096
:1011300061E002C088E060E00E94940684E061E023
:101140000E94940621973FEFCF3FD30709F78CE029
:1011500061E00E949406DF91CF910895CF93DF93D1
:10116000EC018A81813029F450E178E0F2E0E4E09A
:1011700008C0823011F080E0E1C050E470E8F1E096
:10118000E0E2413041F48B85982F9695969596959F
:1011900090FF0AC013C0423071F48B85982F96954A
:1011A0009695969590FF0AC0613011F4805F01C05A
:1011B00080518B8751C0433039F48B85613011F4F5
:1011C000885FF7CF8850F5CF443009F045C08B8554
:1011D000613011F48F5F01C081508B879B859F73B5
:1011E0009B87903150F4892F90E0A1E1B1E0A81BDA
:1011F000B90B3C918F5F9E4F1AC0892F805180316F
:1012000048F4892F90E0DC01AF50BF4F3C91A1E240
:10121000B1E01EC0892F8052803158F4892F90E0B0
:10122000A1E3B1E0A81BB90B3C918F519F4FDC01AA
:1012300011C0892F8053803118F030E020E00EC0BB
:10124000892F90E0DC01AF52BF4F3C91A1E4B1E0A7
:10125000A81BB90B2C9102C03FEF2FEF9B859F730A
:101260009B878A81813029F43093B3002093B400A6
:1012700004C0823011F437BD28BD2F2F2E2B352FFF
:10128000372B832F822B80956091BE02862380931B
:10129000BE02443019F5903118F4822B8093BE02BF
:1012A000892F8051803130F4F72B2091BE022F2BF3
:1012B0002093BE02892F8052803130F4752B20910B
:1012C000BE02272B2093BE029053903190F55E2BE7
:1012D0009091BE02952B9093BE022BC09695969549
:1012E00096959430E1F0953038F4923089F093304F
:1012F00088F4913039F408C09630A9F0963088F01F
:10130000973099F08E2B01C0822B8093BE0211C0C2
:101310008F2BFBCF7F2B782B7093BE020AC0872BBD
:10132000F4CF832BF2CF852BF0CF5E2B582B50932D
:10133000BE028DEB92E00E947C088B85DF91CF91FD
:1013400008955F926F927F928F929F92AF92BF9219
:10135000CF92DF92EF92FF920F931F93CF93DF9381
:10136000EC016B01542EB22EEB80FC800D811E81AE
:1013700023E0B216E1F416950795F794E794C801B7
:10138000B70128EE33E040E050E00E943D21722E8C
:10139000832E942EA52EC801B70128EE33E040E03D
:1013A00050E00E943D217B018C01662445C084E011
:1013B000B81629F794E016950795F794E7949A954F
:1013C000D1F784E0CC0CDD1C8A95E1F7D8CFCE01B3
:1013D000652D4B2D0E94AE08682E672D782D892D26
:1013E0009A2D0E9452058F819885A985BA858E0D08
:1013F0009F1DA01FB11F8F839887A987BA87883E3A
:1014000023E0920720E0A20720E0B20790F061E01D
:1014100070E080E090E00E9452058F819885A98558
:10142000BA85885E9340A040B0408F839887A98793
:10143000BA870894C108D108C114D10441F684E0E8
:10144000B816C9F512C061E070E080E090E00E943B
:1014500052058F819885A985BA85885E9340A04002
:10146000B0408F839887A987BA87662021F120E151
:10147000621609F1CE01652D44E00E94AE08682E87
:10148000672D782D892D9A2D0E9452058F81988580
:10149000A985BA858E0D9F1DA01FB11F8F839887C8
:1014A000A987BA87883E23E0920720E0A20720E0C0
:1014B000B207D8F2C8CFDF91CF911F910F91FF9063
:1014C000EF90DF90CF90BF90AF909F908F907F90E4
:1014D0006F905F900895FC018281813051F480917A
:1014E000BE02817E8093BE028DEB92E00E947C085A
:1014F0000895823049F48091BE028E718093BE02BD
:101500008DEB92E00E947C080895FC01808182307E
:1015100061F0833020F4813009F064C009C0833069
:1015200051F0843009F05EC009C084E091E008C049
:1015300083E092E005C087E095E002C086E090E09D
:101540006230E1F06430A1F1613009F04BC021E07C
:1015500030E0A90102C0440F551F8A95E2F7842F9D
:101560008095A90102C0440F551F9A95E2F720917A
:10157000BE02242B82238093BE0215C021E030E0FE
:10158000A90102C0440F551F9A95E2F7942F909538
:101590004091BE02942302C0220F331F8A95E2F7C6
:1015A000922B9093BE028DEB92E00E947C080895EE
:1015B00021E030E0A90102C0440F551F9A95E2F7DF
:1015C000B90102C0660F771F8A95E2F7CB01842B21
:1015D00080952091BE0228232093BE028DEB92E0DD
:1015E0000E947C080895CF93DF93EC018CE061E0CA
:1015F0000E94420687E061E00E94420688E061E0C6
:101600000E94420684E061E00E9442061092BE02FF
:10161000CE010E947C0887E060E00E949406DF9182
:10162000CF9108951F93DF93CF930F92CDB7DEB77D
:10163000FC01142F608341838DEB92E069830E944B
:10164000F30A69816230B9F0633018F46130C9F58A
:1016500005C06330E9F06430A1F527C08091BE0277
:10166000837F8093BE028DEB92E00E947C08812FE5
:101670000E944C0826C08091BE028D7E8093BE02DF
:101680008DEB92E00E947C08812F0E945B0819C0BC
:101690008091BE028F758093BE028DEB92E00E9416
:1016A0007C08812F0E946A080CC08091BE028E7B4C
:1016B0008093BE028DEB92E00E947C08812F0E94F5
:1016C00073080F90CF91DF911F9108951F93DF93BF
:1016D000CF930F92CDB7DEB7FC01142F6083418307
:1016E0008DEB92E069830E94F30A69816230B9F060
:1016F000633018F46130C9F505C06330E9F0643037
:10170000A1F527C08091BE02837F8093BE028DEB3E
:1017100092E00E947C08812F0E944C0826C0809194
:10172000BE028D7E8093BE028DEB92E00E947C080B
:10173000812F0E945B0819C08091BE028F75809333
:10174000BE028DEB92E00E947C08812F0E946A0805
:101750000CC08091BE028E7B8093BE028DEB92E026
:101760000E947C08812F0E9473080F90CF91DF9117
:101770001F910895EF92FF920F931F93DF93CF93E2
:101780000F92CDB7DEB77C018B018DEB92E04983E0
:101790000E94F30AF7011183008349814283138673
:1017A000413029F58091BE02817E8093BE028DEB8F
:1017B00092E00E947C088BE061E00E94420683E098
:1017C00061E00E9442068BE061E00E94940683E0A3
:1017D00061E00E94940681E00E944C0881E00E9432
:1017E0005B088FEF8093B3008093B40024C0423035
:1017F00011F58091BE028E718093BE028DEB92E056
:101800000E947C0885E061E00E94420686E061E07B
:101810000E94420685E061E00E94940686E061E055
:101820000E94940681E00E946A0881E00E94730889
:101830008FEF87BD88BD0F90CF91DF911F910F91E2
:10184000FF90EF900895EF92FF920F931F93DF9315
:10185000CF930F92CDB7DEB77C018B018DEB92E079
:1018600049830E94F30AF70111830083498142836F
:101870001386413029F58091BE02817E8093BE029D
:101880008DEB92E00E947C088BE061E00E944206B2
:1018900083E061E00E9442068BE061E00E949406D2
:1018A00083E061E00E94940681E00E944C0881E0A0
:1018B0000E945B088FEF8093B3008093B40024C034
:1018C000423011F58091BE028E718093BE028DEB85
:1018D00092E00E947C0885E061E00E94420686E07A
:1018E00061E00E94420685E061E00E94940686E085
:1018F00061E00E94940681E00E946A0881E00E94F3
:1019000073088FEF87BD88BD0F90CF91DF911F9136
:101910000F91FF90EF900895089520E030E0FC01D2
:101920008081882311F421E030E0C901089521E08D
:10193000FC012083089508950E94672408950E9461
:10194000C5230895CB01642F0E9409270895CB0178
:101950000E94012708951F920F920FB60F92112433
:101960002F933F934F936F937F938F939F93EF9317
:10197000FF934091C60020913F0330914003C9017D
:1019800001968F77907060914103709142038617A2
:10199000970741F021543D4FF90140839093400354
:1019A00080933F03FF91EF919F918F917F916F9172
:1019B0004F913F912F910F900FBE0F901F90189550
:1019C0008F92AF92CF92DF92EF92FF920F931F937D
:1019D000DF93CF93CDB7DEB7FC0186E191E0918331
:1019E000808373836283558344833783268311877F
:1019F0000087F386E286D586C486A68687868D858F
:101A0000808B8E85818B8F85828BCF91DF911F910B
:101A10000F91FF90EF90DF90CF90AF908F9008954F
:101A20008F92AF92CF92DF92EF92FF920F931F931C
:101A3000DF93CF93CDB7DEB7FC0186E191E09183D0
:101A4000808373836283558344833783268311871E
:101A50000087F386E286D586C486A68687868D852E
:101A6000808B8E85818B8F85828BCF91DF911F91AB
:101A70000F91FF90EF90DF90CF90AF908F900895EF
:101A8000CF93DF93EC019A01AB01E885F985203013
:101A900081EE380780E0480780E0580709F445C028
:101AA00081E090E00A8802C0880F991F0A94E2F74B
:101AB000808360E079E08DE390E00E943D21215039
:101AC0003040404050405695479537952795EC81DA
:101AD000FD813083EE81FF812083EA85FB85808153
:101AE00021E030E0A9010E8402C0440F551F0A9482
:101AF000E2F7842B8083EA85FB858081A9010F842E
:101B000002C0440F551F0A94E2F7842B8083EA85B4
:101B1000FB858081088802C0220F331F0A94E2F7F8
:101B2000822B8083DF91CF910895108220E130E0F5
:101B3000CECFFC01A285B3853C9181E090E0AC0161
:101B4000068402C0440F551F0A94E2F7242F209503
:101B500023232C93A285B3853C91AC01078402C05A
:101B6000440F551F0A94E2F7242F209523232C932A
:101B7000A285B3852C91008802C0880F991F0A9412
:101B8000E2F7809582238C930895FC0182819381F2
:101B9000FC01E058FF4F208131818E579F4FFC019F
:101BA00080819181281B390B2F773070C9010895EE
:101BB000FC0182819381FC01EE57FF4F208131812E
:101BC000FC01E058FF4F408151814217530719F43F
:101BD0002FEF3FEF05C0820F931FFC01208130E003
:101BE000C9010895DC0112962D913C911397F901DA
:101BF000EE57FF4F80819181D901A058BF4F4D9181
:101C00005C9111974817590719F42FEF3FEF0AC05D
:101C1000280F391FD9012C9101968F7790709183ED
:101C2000808330E0C9010895DC0112968D919C916A
:101C30001397FC01E058FF4F8E579F4FDC018D91A9
:101C40009C911197918380830895FC01A085B185B3
:101C500021898C9190E0022E02C0959587950A9477
:101C6000E2F780FFF6CF0484F585E02D60830895C8
:101C70000F931F93CF93DF93EC018B0109C0E88191
:101C8000F9810084F185E02DCE0109950F5F1F4F8A
:101C9000F8016081662399F7DF91CF911F910F9131
:101CA000089586E191E090934403809343038FEB82
:101CB00092E0909346038093450385EC90E09093E7
:101CC00048038093470384EC90E090934A03809309
:101CD000490380EC90E090934C0380934B0381EC9C
:101CE00090E090934E0380934D0386EC90E09093A8
:101CF000500380934F0384E08093510383E08093EB
:101D0000520387E08093530385E08093540381E07E
:101D1000809355030895813041F0813018F082306E
:101D2000D1F409C010926E00089580916F008D7FEC
:101D300080936F000895809170008D7F8093700074
:101D400081E08093B0008091B100887F84608093AF
:101D5000B1001092B30008951F93182F80912001B5
:101D6000811711F08FEF06C0E8E0F1E084919FEF5A
:101D7000909320010E948B0E812F60E00E949406B8
:101D80001F9108951F920F920FB60F9211242F9357
:101D90003F934F935F936F937F938F939F93AF93F3
:101DA000BF93EF93FF938091640390916503A0919B
:101DB0006603B09167030097A105B10551F1E09169
:101DC0006803F0916903808190916A038927808379
:101DD0008091640390916503A0916603B0916703BD
:101DE000181619061A061B06C4F480916403909114
:101DF0006503A0916603B09167030197A109B1093A
:101E00008093640390936503A0936603B093670384
:101E100004C0809120010E94AC0EFF91EF91BF9110
:101E2000AF919F918F917F916F915F914F913F9172
:101E30002F910F900FBE0F901F9018952F923F92E9
:101E40004F925F926F927F928F929F92AF92BF92CA
:101E5000DF92EF92FF920F931F93DF93CF9300D007
:101E600000D0CDB7DEB71B0129833A834B835C8357
:101E700090912001981721F09F3F09F0DCC104C028
:101E8000E8E0F1E0D4907FC080932001E8E0F1E049
:101E9000D4902FEFD21609F4CEC191E0D91639F1C2
:101EA000A2E0DA1609F449C0DD2009F06CC014BCC8
:101EB00015BC94B5926094BD95B5916095BD282FE1
:101EC00030E0F901E453FF4FE491F0E0EE0FFF1F23
:101ED000E854FF4F4591549150935B0340935A034C
:101EE00020523F4FF901249120935C034EC0109281
:101EF0008000109281009091810098609093810001
:101F000090918100916090938100282F30E0F90139
:101F1000E453FF4FE491F0E0EE0FFF1FE854FF4F52
:101F200045915491509362034093610320523F4F77
:101F3000F90124912093630328C01092B0001092FD
:101F4000B1009091B00092609093B0009091B10078
:101F500091609093B100282F30E0F901E453FF4FD6
:101F6000E491F0E0EE0FFF1FE854FF4F45915491CC
:101F7000509369034093680320523F4FF901249125
:101F800020936A0302C0D7FC56C161E00E9442065A
:101F9000DD2021F0F2E0DF1609F0BEC04101AA24E5
:101FA000BB2460E072E18AE790E0A50194010E9401
:101FB0003D2129013A01830172010894E108F108E9
:101FC000010911092FEFE216F1040105110509F0CD
:101FD00008F499C060E472E48FE090E0A5019401F8
:101FE0000E943D2179018A010894E108F108010964
:101FF000110982E0D816C1F49FEFE916F10401053A
:10200000110509F008F484C060E970ED83E090E008
:10201000A50194010E943D2179018A010894E108FB
:10202000F1080109110983E0AFEFEA16F104010597
:10203000110509F008F468C068E478EE81E090E0EA
:10204000A50194010E943D2179018A010894E108CB
:10205000F10801091109DD2011F483E01EC0B2E08E
:10206000DB1611F084E019C0EFEFEE16F104010564
:10207000110509F010F484E04CC064E274EF80E0D4
:1020800090E0A50194010E943D2179018A01089404
:10209000E108F1080109110985E0FFEFEF16F104ED
:1020A0000105110589F180F162E17AE780E090E0B5
:1020B000A50194010E943D2179018A010894E1085B
:1020C000F10801091109DD2011F086E001C084E06A
:1020D0002FEFE216F10401051105B1F0A8F083011C
:1020E00072019AE016950795F794E7949A95D1F7BF
:1020F0000894E108F10801091109DD2011F087E0D9
:1021000008C085E003C081E0DD2019F485BD3AC038
:1021100082E08093B10036C04101AA24BB2460E074
:1021200072E18AE790E0A50194010E943D217901C6
:102130008A010894E108F1080109110980E0E81614
:1021400080E0F80681E0080780E0180710F491E0CD
:1021500010C068E478EE81E090E0A50194010E944F
:102160003D2179018A010894E108F108010911096A
:1021700093E0A1E0DA1631F480918100887F892B09
:102180008093810089819A81AB81BC810097A105F0
:10219000B10521F48FEF9FEFDC0115C0B101660F8F
:1021A000771F80E090E029813A814B815C810E9419
:1021B000F72028EE33E040E050E00E943D21822FDE
:1021C000932FA42FB52FE1E0DE16A1F0F2E0DF1689
:1021D00019F1DD2081F5E7BC8093560390935703F6
:1021E000A0935803B093590380916E00826080934E
:1021F0006E0021C0F0928900E092880080935D0318
:1022000090935E03A0935F03B093600380916F008F
:10221000826080936F000FC0E092B30080936403EC
:1022200090936503A0936603B09367038091700059
:102230008260809370000F900F900F900F90CF915D
:10224000DF911F910F91FF90EF90DF90BF90AF90C3
:102250009F908F907F906F905F904F903F902F90C6
:1022600008950895089581E08093B00360938D03ED
:102270001092AE031092AF03089581E08093B003F3
:1022800060938D031092AE031092AF030895809176
:102290008C0390918B03891B089590918B038091FF
:1022A0008C03981710F080E00895E92FF0E0E559CD
:1022B000FC4F80819F5F90938B030895CF93DF93B2
:1022C0009C01CB01E091B303F091B4033097D9F0B6
:1022D00050918B0340918C035417A8F040E009C043
:1022E000DB01A559BC4F620F731FEB0158815C9352
:1022F0004F5F642F70E06817790794F310928B0397
:1023000080938C030995DF91CF910895E091B103FB
:10231000F091B203309729F01092AE031092AF0300
:10232000099508957093B4036093B303089570936F
:10233000B2036093B1030895DF93CF930F92CDB7AB
:10234000DEB769838091B003882389F08091AF0361
:10235000803290F48091AE03E82FF0E0E257FC4F1A
:1023600060838F5F8093AE038093AF0305C0CE017F
:10237000019661E00E9492020F90CF91DF91089543
:102380000E949C110895CF92DF92EF92FF921F93CB
:10239000DF93CF930F92CDB7DEB76C01162F972F37
:1023A0008091B003882381F0E62EF72E08C0C60185
:1023B000F70161917F0149830E949C1149818E2D13
:1023C000811B8417A0F304C0862F642F0E94920201
:1023D0000F90CF91DF911F91FF90EF90DF90CF9002
:1023E0000895DB010D900020E9F7AD014150504008
:1023F000461B570B0E94C311089580918D036EE810
:1024000073E04091AF0321E00E9451021092AE03AD
:102410001092AF031092B0030895862F413208F056
:1024200040E26BE673E00E941C0210928B038093E3
:102430008C0308950E940D12089510928B03109240
:102440008C031092AE031092AF030E940502089510
:10245000CF93DF93EC01862F0E94180286E891E16A
:102460000E94B1028EE591E10E94AC02CE010E9471
:102470001D12DF91CF9108950E942812089585EBD7
:1024800093E00E94961889EB93E063E041E00E949C
:10249000120B8BEB93E064E041E00E94120B8DEB9A
:1024A00093E068EC70E041E00E94BA0B08950F934E
:1024B0001F9380ED93E068EC0E94BB1468E873E121
:1024C00080E090E00E94520588E994E068EC0E9468
:1024D000BB1480ED93E068E974E040E655E025E642
:1024E00035E00E94A81385EB93E00E945318909367
:1024F000CA038093C9036091650570916605680FF2
:10250000791F809160050E945F1585EB93E00E9422
:1025100053189093CA038093C90307C08091C903DD
:102520009091CA0360E00E94261783E00E94A114E4
:102530008831910598F70E94E61580E695E065E6FA
:1025400075E042E02FE635E000E715E00E94F11566
:1025500085EB93E00E9453189C019093CA038093EB
:10256000C90380916F058C3310F48CE303C085366A
:1025700008F084E66091700570917105620F731F19
:102580000E945F1585EB93E00E9453189093CA0355
:102590008093C90307C08091C9039091CA0360E08A
:1025A0000E94261783E00E94A1148831910598F7B4
:1025B0000E94E61580E695E065E675E043E02FE6CB
:1025C00035E000E715E00E94F11585EB93E00E94ED
:1025D00053189C019093CA038093C90380916F059F
:1025E0008C3310F48CE303C0853608F084E66091E8
:1025F000700570917105620F731F0E945F1585EB66
:1026000093E00E9453189093CA038093C90307C0B4
:102610008091C9039091CA0360E00E94261783E06D
:102620000E94A1148F31910598F70E94E61580E66B
:1026300095E065E675E044E02FE635E000E715E05B
:102640000E94F11585EB93E00E9453189C01909332
:10265000CA038093C90380916F058C3310F48CE317
:1026600003C0853608F084E66091700570917105AD
:10267000620F731F0E945F1585EB93E00E94531851
:102680009093CA038093C90307C08091C9039091B6
:10269000CA0360E00E94261783E00E94A1148F31D4
:1026A000910598F70E94E61585EB93E00E94531878
:1026B0009093CA038093C9038091C9039091CA0380
:1026C00060E00E94261760ED77E080E090E00E94D5
:1026D00052058091C9039091CA0361E00E942617B8
:1026E00060ED77E080E090E00E945205E5CF8DE05C
:1026F00061E00E94420682E060E00E94420683E0C0
:1027000060E00E94420680E00E94BE0581E061E038
:102710000E941E1480E061E00E941E1480E490E09C
:1027200060E070E00E94A0238093CE039093CF03DB
:1027300083E493E040E051EE60E070E00E94400DE1
:1027400008950E9483050E9477130E945712FDCFBF
:10275000AF92BF92CF92DF92EF92FF920F931F93AF
:10276000CF93DF93E901F22EE32EF90120E030E070
:1027700011921192DA01A20FB31F1C922F5F3F4FEB
:1027800024303105A9F7A0E0B0E0BB2447C030E019
:10279000032F10E06B01C00ED11EF6012081080F3F
:1027A000191FF801008110E0021B1109C0903501CA
:1027B000DD24C016D106C8F4B394F0913401BF16DD
:1027C000A9F4A430B10590F4FA01EA0FFB1F2083AD
:1027D000FD01EE0FFF1FEC0FFD1F22E1329F800174
:1027E0001124118300831196315FBB243F5F383C75
:1027F00078F22F2D3E2DE4E0AE2EF90100851185F3
:102800000115110531F0C680D7800C191D091187FB
:102810000087AA9422503040AA2079F7FA01238138
:10282000222309F4B4CFDF91CF911F910F91FF9034
:10283000EF90DF90CF90BF90AF900895CF93DF934C
:10284000883C18F0613009F44AC0662309F447C097
:102850002091720530917305C82FD0E02C173D07E9
:10286000B0F01DC08DEB93E061E041E00E94AE0846
:1028700080917205909173050196909373058093F2
:1028800072056AE070E080E090E00E94520580915D
:102890007205909173058C179D0721F720C0C21710
:1028A000D307B0F01CC08DEB93E062E041E00E94E2
:1028B000AE0880917205909173050197909373050E
:1028C000809372056AE070E080E090E00E9452051B
:1028D00080917205909173058C179D0721F7809167
:1028E0007205DF91CF910895EF92FF920F931F939E
:1028F000CF93DF93F82E00E010E0C0E0D0E08F2D02
:102900000E94C1050F5F1F4F8C1B9D0BB8010E94D9
:102910002A21C60FD71F0436110589F7CE01DF9192
:10292000CF911F910F91FF90EF90089582E090E07A
:102930000E94741483E090E00E94741480E090E0A0
:10294000089590E00E9474149C0183E025333807B9
:1029500018F024E130E00DC02039310518F426E9E3
:1029600030E007C027583F4FF901249130E0220F93
:10297000331FC9010895EF92FF920F931F93CF93D6
:10298000DF93182F062FE12EE7017E01F92EE701D4
:1029900012C083E00E94A114899380E060E00E944D
:1029A0001E148F5F61E00E941E1464E670E080E0F8
:1029B00090E00E945205AE01411B401750F380E0A9
:1029C00061E00E941E14DF91CF911F910F91FF9043
:1029D000EF900895CF93DF93EC0102C0C051DE4029
:1029E0008EE0C031D807D0F700D000D000D0EDB7CE
:1029F000FEB731968091CE039091CF03ADB7BEB7AD
:102A000012969C938E93119781E291E09383828337
:102A1000CE016AE070E00E941621758364830E94F3
:102A200005258DB79EB706960FB6F8949EBF0FBECC
:102A30008DBF6091CE037091CF0383E493E00E9439
:102A4000380EE091CE03F091CF0380E4DF011D92B8
:102A50008A95E9F78BEB93E066E90E94140889EB0D
:102A600093E066E90E9414088BEB93E061E00E941A
:102A7000850A89EB93E062E00E94850A85EB93E08A
:102A80000E9453189C01C817D90731F0CE01821B50
:102A9000930B8333910590F762E370E080E090E060
:102AA0000E94520589EB93E064E00E94850A8BEB5B
:102AB00093E064E00E94850ADF91CF910895CF9260
:102AC000DF92EF92FF920F931F93CF93DF93E82E45
:102AD000CB01969587950E94EA1485EB93E00E94BE
:102AE00053188C0164E670E080E090E00E9452058B
:102AF00083E00E94A114C82EE6016E01D92EE601E2
:102B0000FF2449C080E060E00E941E148F5F61E0F6
:102B10000E941E1483E00E94A114C82EE6016E01DB
:102B2000D92EE601CE19DF09D7FF03C0D095C19594
:102B3000DF4F64E670E080E090E00E9452058091F3
:102B4000350190E08C179D07ECF280E060E00E9478
:102B50001E1432E1839FE001112480E061E00E94B5
:102B60001E14CE0196958795800F911F0E94EA143E
:102B700085EB93E00E9453188C0164E670E080E0DE
:102B800090E00E94520583E00E94A114C82EE60145
:102B90006E01D92EE601CE19DF09D7FF03C0D0950B
:102BA000C195DF4F8091350190E08C179D073CF275
:102BB000C8018C599F4F0E94EA14DF91CF911F9159
:102BC0000F91FF90EF90DF90CF90089589EB93E005
:102BD00064E00E94850A8BEB93E064E00E94850A22
:102BE00008952F923F924F925F926F927F928F92B1
:102BF0009F92AF92BF92CF92DF92EF92FF920F938C
:102C00001F93DF93CF93CDB7DEB72C970FB6F89411
:102C1000DEBF0FBECDBF5C017A8369833E832D8307
:102C200018870F83423008F442E0042F10E0C801F7
:102C300001979A878987FC01EA0DFB1D608170E08E
:102C400080E090E00E948A1E6B017C01F501E00F9C
:102C5000F11F3297608170E080E090E00E948A1E50
:102C60008B01B82EA92E6C2D7D2D8E2D9F2D2C2DF8
:102C70003D2D4E2D5F2D0E94A41B962E472E382EE3
:102C8000292E9501602F712F832F922FF501202F70
:102C9000312F4F2F5E2F0E94A41B862E772E682E79
:102CA000592EA985BA85AA0FBB1FE981FA81AE0FFB
:102CB000BF1F6D917C9180E090E00E948A1E2BEDF9
:102CC0003FE049E450E40E94A41B20E030E044E3EC
:102CD00053E40E949C1C0E940A2269837A838B839E
:102CE0009C83C101492D542D692F782FCB01BA0146
:102CF000282D372D462D552D0E94771B69877A8701
:102D00008B879C879501602F712F832F922F20E056
:102D100030E040E050EC0E94A41B2C2D3D2D4E2DA8
:102D20005F2D0E94A41B29813A814B815C810E9406
:102D3000A41B9B01AC0169857A858B859C850E94CB
:102D4000771B0E943C230E94CA19962EED81FE81BA
:102D5000608370E080E090E00E948A1E9B01AC01DD
:102D60000E94A41BA62FF72FE82F292FA301682D5F
:102D7000752F842F952DAF014A2E552E642E722E5D
:102D8000A30192010E94771B2B013C016C2D7D2D2C
:102D90008E2D9F2DA70196010E94A41B9B01AC01C3
:102DA000C301B2010E94461B6B017C019501602F9B
:102DB000712F832F922FF501202F312F4F2F5E2F50
:102DC0000E94771B2B013C01292D30E0B901882797
:102DD00077FD8095982F0E94DA1D9B01AC01C301FD
:102DE000B2010E94A41B9B01AC01C701B6010E9465
:102DF0009C1C0E949C2120EE3EE245E652E40E948B
:102E0000A41B20E030E040E251E40E94A41B0E9499
:102E1000CA19EF81F885718360832C960FB6F894F8
:102E2000DEBF0FBECDBFCF91DF911F910F91FF90FD
:102E3000EF90DF90CF90BF90AF909F908F907F905A
:102E40006F905F904F903F902F9008959F92AF9218
:102E5000BF92CF92DF92EF92FF920F931F93CF9387
:102E6000DF938C01962E0E941E059B01AC01809180
:102E7000740590917505A0917605B0917705281796
:102E800039074A075B0740F41092740510927505E4
:102E900010927605109277050E941E052091740508
:102EA000309175054091760550917705621B730B43
:102EB000840B950B6B3071058105910508F4A6C054
:102EC000265F3F4F4F4F5F4F20937405309375053A
:102ED000409376055093770585EB93E00E94531855
:102EE0005C01B80180E090E00E948A1E7B018C01A9
:102EF000B50180E090E00E948A1E9B01AC01C801F0
:102F0000B7010E94BC185B016C0120E030E04AEF81
:102F100052E40E94771B7B018C017F2D912F20E0D2
:102F200030E048E452E40E94AA1D88231CF402E326
:102F300010E016C06E2D7F2D802F912F20E030E005
:102F400048E453E40E944A1D18161CF408EC10E0F3
:102F500007C06E2D7F2D802F912F0E94371E8B0171
:102F600060E070E08AEF92E4A60195010E94461BA2
:102F7000D62EA72E7C019F2D20E030E048E452E4BD
:102F80000E94AA1D88231CF4C2E3D0E016C06D2D58
:102F90007A2D8E2D9F2D20E030E048E453E40E94EE
:102FA0004A1D18161CF4C8ECD0E007C06D2D7A2D10
:102FB0008E2D9F2D0E94371EEB01992099F089EBF1
:102FC00093E0602F0E9414088BEB93E06C2F0E941B
:102FD000140889EB93E062E00E94850A8BEB93E092
:102FE00062E012C089EB93E06C2F0E9414088BEB17
:102FF00093E0602F0E94140889EB93E061E00E9447
:10300000850A8BEB93E061E00E94850ADF91CF9106
:103010001F910F91FF90EF90DF90CF90BF90AF90F6
:103020009F900895FC01828193810895EF92FF9211
:103030000F931F93CF93DF93EC018C01698170E0B4
:103040006E7F70707E019F2D0E943D11CE0163E462
:1030500070E00E94C011CE010E94FD11EE24FF24F9
:1030600068EE73E080E090E00E9452050894E11C55
:10307000F11C24E1E216F10499F7698170E06E7F9A
:103080007070C8010E943D11C80165E470E00E94A3
:10309000C011C8010E94FD11DF91CF911F910F91C6
:1030A000FF90EF900895EF92FF920F931F93CF93AD
:1030B000DF93EC018C017E019F2D69810E94331109
:1030C000CE0161E470E00E94C011CE010E94FD11AA
:1030D00066E070E080E090E00E9452056981CE01D8
:1030E00070E042E050E00E941A12C8010E944711AD
:1030F0008823D9F3C8010E944D11F82EC8010E94FF
:1031000047118823D9F3C8010E944D115F2D40E07B
:10311000282F30E0242B352B3B832A83C901DF91F4
:10312000CF911F910F91FF90EF900895EF92FF9232
:10313000CF93DF93EC017E019F2D0E94321181E23B
:103140008983CE010E941D12DF91CF91FF90EF90F5
:103150000895EF92FF92CF93DF93EC017E019F2DB4
:103160000E94321181E28983CE010E941D12DF91FB
:10317000CF91FF90EF9008952F923F924F925F92E0
:103180006F927F928F929F92AF92BF92CF92DF9277
:10319000EF92FF920F931F9359016A010E94461B01
:1031A0007B018C017F2D912F20E030E041EE54E433
:1031B0000E944A1D18165CF46E2D7F2D802F912FD2
:1031C00020E030E041E655E40E94461B16C06E2D1B
:1031D0007F2D802F912F20E030E041EE54EC0E94B3
:1031E000AA1D882364F46E2D7F2D802F912F20E05F
:1031F00030E041E655E40E94771B7B018C016E2D87
:103200007F2D802F912F26E636E646E65FE30E946B
:10321000A41B562E472E382E292EA2019101852F50
:10322000942FA32FB22F8093820590938305A093B0
:103230008405B09385056E2D7F2D802F912F2091D1
:103240007A0530917B0540917C0550917D050E9467
:10325000771B7B018C01862F9F2DA02FB12F809390
:103260007A0590937B05A0937C05B0937D056E2D28
:103270007F2D802F912F20E030E44CE156E40E9416
:103280004A1D18162CF480E090E4ACE1B6E410C0BE
:103290006E2D7F2D802F912F20E030E44CE156ECF5
:1032A0000E94AA1D882364F480E090E4ACE1B6ECAF
:1032B00080937A0590937B05A0937C05B0937D0560
:1032C00060917A0570917B0580917C0590917D05D8
:1032D0002AE037ED43E25CE30E94A41B8B01F82E49
:1032E000E92E9701862F912FA32FB22F8093860569
:1032F00090938705A0938805B0938905C601B50111
:1033000020917E0530917F05409180055091810587
:103310000E94461B962E872E782E692EA4019301BB
:10332000852F942FA32FB22F80938A0590938B051E
:10333000A0938C05B0938D05A0927E05B0927F0579
:10334000C0928005D0928105A2019101652F742D54
:10335000832F922DF701202F312F4F2F5E2F0E94A8
:10336000771BD401F3012B2F3A2F4F2F5E2F0E9492
:10337000461B1F910F91FF90EF90DF90CF90BF9071
:10338000AF909F908F907F906F905F904F903F9005
:103390002F900895EF92FF920F931F937B018C0162
:1033A00020E030E040E05FE40E947A1D88238CF04A
:1033B000C801B70120E030E040E05FE40E94461B16
:1033C0000E94371E9B01AC012050304040405048C5
:1033D00006C0C801B7010E94371E9B01AC01B901AC
:1033E000CA011F910F91FF90EF900895A0E0B0E007
:1033F000ECEFF9E10C946121FC012B01EA018081E1
:10340000823008F43DC1DB019C91923008F437C151
:10341000843069F4943009F033C1918111968C9114
:103420001197981709F42CC1E6E3F1E029C1943013
:1034300009F425C19230A9F4823009F021C19F011D
:1034400088E0D9010D909D01DA010D92AD01815006
:10345000C1F7D20111968C911197918189238983AB
:103460000CC1823009F40BC182819381DB01129679
:103470004D915C911397E480F58006811781149635
:10348000AD90BD90CD90DC9017979C01241B350B1F
:10349000B90137FF04C066277727621B730B6032C0
:1034A00071050CF062C0121613066CF53501460169
:1034B000062E04C096948794779467940A94D2F762
:1034C00021E030E040E050E004C0220F331F441FF1
:1034D000551F6A95D2F721503040404050402A2174
:1034E0003B214C215D21211531054105510521F07C
:1034F00021E030E040E050E059016A01A628B728F9
:10350000C828D9283DC021153105D1F1860F971F54
:1035100037014801062E04C09694879477946794E7
:103520000A94D2F721E030E040E050E004C0220FDE
:10353000331F441F551F6A95D2F721503040404039
:1035400050402E213F2140235123211531054105B3
:10355000510521F021E030E040E050E079018A019E
:10356000E628F728082919290BC0481759072CF015
:10357000CA01EE24FF24870103C0AA24BB246501ED
:103580002181F2013181231709F44AC0222349F035
:10359000A60195012E193F09400B510B79018A01B3
:1035A00004C0EA18FB080C091D0917FD0CC019829C
:1035B0009B838A83EC82FD820E831F838C819D8195
:1035C000AE81BF811AC021E029839B838A8388272B
:1035D0009927DC018E199F09A00BB10B8C839D8369
:1035E000AE83BF83EBCF880F991FAA1FBB1F2A8111
:1035F0003B81215030403B832A839C01AD01215007
:103600003040404050402F3F6FEF36076FEF460786
:103610006FE3560740F38C839D83AE83BF830BC05B
:1036200029839B838A83EA0CFB1C0C1D1D1DEC82E5
:10363000FD820E831F8383E088832C813D814E8130
:103640005F8157FF1AC0C901AA2797FDA095BA2F1D
:1036500081709070A070B0705695479537952795FA
:10366000822B932BA42BB52B8C839D83AE83BF839E
:103670008A819B8101969B838A83FE0101C0F201AE
:10368000CF01CDB7DEB7E0E10C947D21A0E2B0E040
:10369000ECE4FBE10C946B2169837A838B839C833C
:1036A0002D833E834F835887E9E0EE2EF12CEC0EFC
:1036B000FD1ECE010196B7010E9429208E010F5EEA
:1036C0001F4FCE010596B8010E9429208A8991E0FA
:1036D00089278A8BC701B801AE01475E5F4F0E9400
:1036E000F6190E945A1FA096E6E00C948721A0E2EA
:1036F000B0E0EDE7FBE10C946B2169837A838B8367
:103700009C832D833E834F835887F9E0EF2EF12C65
:10371000EC0EFD1ECE010196B7010E9429208E01FC
:103720000F5E1F4FCE010596B8010E942920C701E8
:10373000B801AE01475E5F4F0E94F6190E945A1F02
:10374000A096E6E00C948721A0E2B0E0EAEAFBE173
:103750000C945F2169837A838B839C832D833E83C2
:103760004F835887CE010196BE01675F7F4F0E944D
:103770002920CE010596BE016F5E7F4F0E94292051
:103780009985923088F089898230C8F0943019F494
:10379000823051F404C0843029F4923081F486E3FD
:1037A00091E0C4C0923049F480E02A859A892913B7
:1037B00081E08A87CE010996B9C0823049F480E061
:1037C0002A859A89291381E08A8BCE014196AEC061
:1037D0006D847E848F849888AD88BE88CF88D88C8D
:1037E00060E070E080E090E0DC01EE24FF248701DF
:1037F00020E030E0A901F301E170F0703097C9F0EA
:103800002A0D3B1D4C1D5D1D8E0D9F1DA01FB11F60
:103810002224332421012A153B054C055D0528F49B
:10382000E1E02E2E312C412C512C820D931DA41D34
:10383000B51DEE0CFF1C001F111FD7FE09C0E1E0F3
:103840002E2E312C412C512CE228F3280429152945
:103850006F5F7F4F6032710549F0AA0CBB1CCC1C16
:10386000DD1C9694879477946794C5CF6B897C8987
:10387000EB85FC856E0F7F1F6E5F7F4F7C8F6B8F9C
:103880001A8E7A856A89761711F061E06A8F6B8DDE
:103890007C8D10C0FC01E170F070309729F05695D6
:1038A0004795379527955068B695A795979587952D
:1038B0006F5F7F4FB7FDEECF0CC0880F991FAA1F17
:1038C000BB1F57FD8160220F331F441F551F6150DE
:1038D00070408030E0E09E07E0E0AE07E0E4BE0725
:1038E00060F36B8F7C8F6FE7E62EF12C012D112D8D
:1038F000E822F9220A231B2360E4E616F1040105FD
:10390000110561F487FD0AC02115310541055105F6
:1039100029F0805C9F4FAF4FBF4F80788D8F9E8F77
:10392000AF8FB8A383E0898FCE0149960E945A1FBA
:10393000A096E2E10C947B21A8E1B0E0E2EAFCE190
:103940000C94672169837A838B839C832D833E83C8
:103950004F8358878E01075F1F4FCE010196B80134
:103960000E94292081E1E82EF12CEC0EFD1ECE01F3
:103970000596B7010E9429209985923008F483C0EA
:103980008989823010F487017EC02A853A892327ED
:103990002A87943011F0923031F4981709F070C0F2
:1039A00006E311E070C0843039F41D861E861F8640
:1039B000188A1C861B8667C0823019F484E08987C8
:1039C00062C08B859C852B893C89821B930B9C87CD
:1039D0008B872D853E854F855889AD88BE88CF88D9
:1039E000D88C2A153B054C055D0538F4220F331F92
:1039F000441F551F01979C878B8760E070E0E12C86
:103A0000F12C012DA0E41A2F80E090E0DC012A15B2
:103A10003B054C055D0540F08E299F29A02BB12B5D
:103A20002A193B094C095D0916950795F794E79407
:103A3000220F331F441F551F6F5F7F4F6F3171057A
:103A400031F76FE7E62EF12C012D112DE822F92236
:103A50000A231B2360E4E616F1040105110561F455
:103A600087FD0AC0211531054105510529F0805C0B
:103A70009F4FAF4FBF4F80788D879E87AF87B88BA2
:103A80008E01075F1F4FC8010E945A1F6896EAE027
:103A90000C948321A8E1B0E0E0E5FDE10C946B21FA
:103AA00069837A838B839C832D833E834F835887DE
:103AB00089E0E82EF12CEC0EFD1ECE010196B70137
:103AC0000E9429208E010F5E1F4FCE010596B8017E
:103AD0000E9429208985823040F08989823028F02F
:103AE000C701B8010E94982001C08FEF6896E6E0F8
:103AF0000C948721A8E1B0E0E0E8FDE10C946B2193
:103B000069837A838B839C832D833E834F8358877D
:103B100089E0E82EF12CEC0EFD1ECE010196B701D6
:103B20000E9429208E010F5E1F4FCE010596B8011D
:103B30000E9429208985823040F08989823028F0CE
:103B4000C701B8010E94982001C08FEF6896E6E097
:103B50000C948721A8E1B0E0E0EBFDE10C946B212F
:103B600069837A838B839C832D833E834F8358871D
:103B700089E0E82EF12CEC0EFD1ECE010196B70176
:103B80000E9429208E010F5E1F4FCE010596B801BD
:103B90000E9429208985823040F08989823028F06E
:103BA000C701B8010E94982001C081E06896E6E054
:103BB0000C948721A8E0B0E0E0EEFDE10C946921CF
:103BC00023E029839B01AC01222757FD239533274E
:103BD000442755272A83611571058105910519F43C
:103BE00082E089833CC02223A9F0603020E0720784
:103BF00020E0820720E8920729F460E070E080E08E
:103C00009FEC31C0EE24FF248701E61AF70A080B67
:103C1000190B02C07B018C018EE1C82ED12CDC82F5
:103C2000CB82ED82FE820F831887C801B7010E9404
:103C3000021F9C01215030401216130684F4022EFC
:103C400004C0EE0CFF1C001F111F0A94D2F7ED8276
:103C5000FE820F831887C21AD30ADC82CB82CE0180
:103C600001960E945A1F2896E8E00C948521ACE04A
:103C7000B0E0EDE3FEE10C946F2169837A838B83DE
:103C80009C83CE010196BE016B5F7F4F0E9429206D
:103C90008D81823061F1823050F1843021F48E8147
:103CA000882349F12DC02F81388537FD20C06E81D2
:103CB0002F3131051CF06623F1F022C08EE190E037
:103CC000821B930B29853A854B855C8504C05695EC
:103CD0004795379527958A95D2F76623A9F0509591
:103CE0004095309521953F4F4F4F5F4F0DC020E0DD
:103CF00030E0A90109C02FEF3FEF4FEF5FE704C0AD
:103D000020E030E040E050E8B901CA012C96E2E042
:103D10000C948B21A8E0B0E0E0E9FEE10C9469216D
:103D20007B018C011A82611571058105910519F4D9
:103D300082E089835FC083E089838EE1C82ED12C25
:103D4000DC82CB82ED82FE820F831887C801B70127
:103D50000E94021F9C012150304037FF38C0EE27DF
:103D6000FF27E21BF30B40E050E0BA0181E090E056
:103D7000A0E0B0E00E2E04C0880F991FAA1FBB1F41
:103D80000A94D2F70197A109B1098E219F21A0239E
:103D9000B1230097A105B10521F041E050E060E0BA
:103DA00070E004C016950795F794E794EA95D2F76A
:103DB000E42AF52A062B172BED82FE820F83188743
:103DC0008EE190E0821B930B9C838B8313C02115A3
:103DD000310581F0022E04C0EE0CFF1C001F111FE4
:103DE0000A94D2F7ED82FE820F831887C21AD30A93
:103DF000DC82CB82CE0101960E945A1F2896E8E011
:103E00000C948521AF92BF92CF92DF92EF92FF92F6
:103E10000F931F937B018C0180E0E81680E0F80689
:103E200081E0080780E0180780F48FEFE816F104BE
:103E30000105110531F028F088E090E0A0E0B0E045
:103E400016C080E090E0DC0112C080E0E81680E05F
:103E5000F80680E0080781E0180728F088E190E084
:103E6000A0E0B0E004C080E190E0A0E0B0E020E29B
:103E700030E040E050E0281B390B4A0B5B0B570148
:103E8000680104C0D694C794B794A7948A95D2F7D2
:103E9000F501E25CFE4F8081281B3109410951097F
:103EA000C9011F910F91FF90EF90DF90CF90BF90CD
:103EB000AF900895CF92DF92EF92FF920F931F93EE
:103EC000FC012481358146815781018180818230C6
:103ED00020F440618FEF90E0A2C0843009F49AC0D2
:103EE000823019F480E090E097C02115310541053A
:103EF000510519F480E090E092C0828193816FEFC8
:103F0000823896070CF058C062E87FEF681B790B87
:103F10006A31710524F020E030E0A9012AC069016E
:103F20007A01062E04C0F694E794D794C7940A94B5
:103F3000D2F781E090E0A0E0B0E004C0880F991FC4
:103F4000AA1FBB1F6A95D2F70197A109B109822365
:103F50009323A423B5230097A105B10521F081E0A7
:103F600090E0A0E0B0E09C01AD012C293D294E2954
:103F70005F29DA01C9018F779070A070B07080342A
:103F80009105A105B10539F427FF09C0205C3F4F19
:103F90004F4F5F4F04C0215C3F4F4F4F5F4F80E05A
:103FA00090E0203060E0360760E0460760E45607A6
:103FB00048F181E090E026C0803891055CF5815899
:103FC0009F4F7FE7C72ED12CE12CF12CC222D322A8
:103FD000E422F52260E4C616D104E104F10439F4C8
:103FE00027FF09C0205C3F4F4F4F5F4F04C0215C4B
:103FF0003F4F4F4F5F4F57FF05C056954795379539
:104000002795019697E056954795379527959A9568
:10401000D1F705C08FEF90E020E030E0A901782FC4
:10402000779577277795142F1F77602F67956627E9
:1040300067958695F12FF72BE82FE62B622F732FCC
:104040008F2F9E2F1F910F91FF90EF90DF90CF90B9
:104050000895FC01DB01208131818281482F4F7757
:1040600050E0982F991F9927991F6381862F880FF9
:10407000892B90E0661F6627661F11966C93119737
:10408000009769F5211531054105510511F482E0CC
:104090002FC082E89FEF13969C938E93129767E050
:1040A000220F331F441F551F6A95D1F783E08C936D
:1040B0000DC0220F331F441F551F12968D919C91E6
:1040C0001397019713969C938E931297203080E05C
:1040D000380780E0480780E4580758F322C08F3F34
:1040E000910579F4211531054105510519F484E054
:1040F0008C93089544FF03C081E08C9312C01C92FE
:1041000010C08F57904013969C938E93129783E024
:104110008C9387E0220F331F441F551F8A95D1F7D8
:10412000506414962D933D934D935C931797089587
:10413000EF92FF920F931F93FC01DB01808182308D
:1041400008F447C09C91923008F443C0843051F485
:1041500081819430A1F511962C91119730E0281BA4
:1041600031093FC0943021F0823031F49230B9F1FE
:1041700011968C9111972BC08181923001F111968B
:104180009C9111978917D9F44281538112962D91F0
:104190003C9113972417350794F042175307BCF04E
:1041A000E480F5800681178114962D913D914D9103
:1041B0005C9117972E153F054007510718F4882387
:1041C00041F00AC0E216F3060407150740F48823FD
:1041D00019F021E030E005C02FEF3FEF02C020E0F2
:1041E00030E0C9011F910F91FF90EF900895629FF9
:1041F000D001739FF001829FE00DF11D649FE00DDF
:10420000F11D929FF00D839FF00D749FF00D659F3F
:10421000F00D9927729FB00DE11DF91F639FB00D3E
:10422000E11DF91FBD01CF0111240895AA1BBB1B7D
:1042300051E107C0AA1FBB1FA617B70710F0A61BA6
:10424000B70B881F991F5A95A9F780959095BC01C7
:10425000CD01089597FB092E07260AD077FD04D0DB
:10426000E5DF06D000201AF4709561957F4F089520
:10427000F6F7909581959F4F0895A1E21A2EAA1BFB
:10428000BB1BFD010DC0AA1FBB1FEE1FFF1FA21706
:10429000B307E407F50720F0A21BB30BE40BF50B03
:1042A000661F771F881F991F1A9469F7609570958C
:1042B000809590959B01AC01BD01CF0108952F928F
:1042C0003F924F925F926F927F928F929F92AF92A6
:1042D000BF92CF92DF92EF92FF920F931F93CF93F3
:1042E000DF93CDB7DEB7CA1BDB0B0FB6F894DEBF8A
:1042F0000FBECDBF09942A88398848885F846E84B0
:104300007D848C849B84AA84B984C884DF80EE80F9
:10431000FD800C811B81AA81B981CE0FD11D0FB602
:10432000F894DEBF0FBECDBFED010895EE0FFF1F65
:104330000590F491E02D09949F939F776ED00F9094
:1043400000203AF49058A2EA2AED3FE049E450E414
:104350000ED0E2C0ABD030F0B0D020F031F49F3FAF
:1043600011F41EF47BC00EF4E095E7FB71C0E92F59
:10437000F5D080F3BA17620773078407950718F022
:1043800071F49EF50DC10EF4E0950B2EBA2FA02D01
:104390000B01B90190010C01CA01A0011124FF27F2
:1043A000591B99F0593F50F4503E68F11A16F040ED
:1043B000A22F232F342F4427585FF3CF46953795EC
:1043C0002795A795F0405395C9F77EF41F16BA0BB1
:1043D000620B730B840BBAF09150A1F0FF0FBB1F5F
:1043E000661F771F881FC2F70EC0BA0F621F731FA8
:1043F000841F48F4879577956795B795F7959E3F05
:1044000008F0B3CF9395880F08F09927EE0F979592
:10441000879508955AD0E39590C0DF93CF931F936B
:104420000F938B01EC01E8E6F0E01BD075D098010A
:10443000AE018B01EC0160E070E080E89FE326D9DB
:104440001BD19801AE010F911F91CF91DF91B9C09F
:1044500097F99F6780E870E060E008959FEF80EC37
:104460000895DF93CF931F930F93FF92EF92DF9204
:104470007B018C01689405C0DA2EEF01A2D0FE0109
:10448000E894A5912591359145915591AEF3EF01B1
:104490006EDFFE019701A801DA9479F7DF90EF90C3
:1044A000FF900F911F91CF91DF91089500240A94FE
:1044B0001616170618060906089500240A941216FF
:1044C0001306140605060895C9CF50D0E8F3E89402
:1044D000E0E0BB279F57F0F02AED3FE049EC06C033
:1044E000EE0FBB0F661F771F881F28F0B23A6207D6
:1044F0007307840728F0B25A620B730B840BE395A1
:104500009A9572F7803830F49A95BB0F661F771F23
:10451000881FD2F79048F0C0092E0394000C11F4C4
:10452000882352F0BB0F40F4BF2B11F460FF04C08E
:104530006F5F7F4F8F4F9F4F0895EF93E0FF06C04F
:10454000A2EA2AED3FE049EC5FEB11DFE5DF0F90D7
:10455000039401FC9058E0E9F0E0E1C057FD905869
:10456000440F551F59F05F3F71F04795880F97FB37
:10457000991F61F09F3F79F08795089512161306F1
:104580001406551FF2CF4695F1DF08C01616170620
:104590001806991FF1CF8695710561050894089555
:1045A000E894BB2766277727CB0197F908957EDF2C
:1045B00028F083DF18F0952309F04ACF4FCF11245C
:1045C000F0CFCCDFA0F3959FD1F3950F50E0551FAE
:1045D000629FF001729FBB27F00DB11D639FAA2758
:1045E000F00DB11DAA1F649F6627B00DA11D661FA7
:1045F000829F2227B00DA11D621F739FB00DA11DC8
:10460000621F839FA00D611D221F749F3327A00D81
:10461000611D231F849F600D211D822F762F6A2F1D
:1046200011249F5750408AF0E1F088234AF0EE0FA2
:10463000FF1FBB1F661F771F881F91505040A9F7AF
:104640009E3F510570F004CFACCF5F3FECF3983E36
:10465000DCF3869577956795B795F795E7959F5F16
:10466000C1F7FE2B880F911D9695879597F90895B0
:1046700011F40EF4F3CE3EC079DFD0F39923D9F3D1
:10468000CEF39F57550B87FF43D00024A0E640EAA6
:10469000900180585695979528F4805C660F771F97
:1046A000881F20F026173707480730F4621B730B6A
:1046B000840B202931294A2BA6951794079420258D
:1046C00031254A2758F7660F771F881F20F02617D5
:1046D0003707480730F4620B730B840B200D311D34
:1046E000411DA09581F7B901842F9158880F9695A7
:1046F000879508959F3F31F0915020F487957795E5
:104700006795B795880F911D9695879597F90895A8
:1047100091505040660F771F881FD2F708959F93DE
:104720008F937F936F93FF93EF939B01AC010CD812
:10473000EF91FF9196DE2F913F914F915F9104C8C9
:10474000EF92FF920F931F93CF93DF93689F8001A7
:10475000699F100D789F100D1124C8010E94C52378
:10476000E82EE7017E01F92EE701E114F10431F0B2
:104770008E2D60E070E0A8010E94FE247E01CE0133
:10478000CDB7DEB7E6E00C948721EF92FF920F934E
:104790001F93CF93DF938230910510F482E090E075
:1047A000C0919005D091910520E030E040E050E0CC
:1047B00029C06881798168177907D8F06817790767
:1047C00079F48A819B812115310521F0F9019383C8
:1047D000828304C09093910580939005DE012AC0E6
:1047E0004115510519F06417750718F4FE01AB0166
:1047F000D9019E017A816B81E72EE7017E01062FA8
:10480000F62EE7012097A9F641155105F9F0481B4E
:10481000590B4430510580F482819381109729F01F
:1048200013969C938E93129704C090939105809356
:104830009005DF01129645C0DF01A40FB51F8D93CF
:104840009D9342505040518340833BC020918E0540
:1048500030918F052115310541F4209140023091AE
:10486000410230938F0520938E05209142023091B2
:1048700043022115310541F42DB73EB740913E0268
:1048800050913F02241B350BA0918E05B0918F05EE
:10489000A217B307A0F42A1B3B0B2817390778F09F
:1048A000AC014E5F5F4F2417350748F04A0F5B1F7E
:1048B00050938F0540938E058D939D9302C0A0E089
:1048C000B0E0CD01CDB7DEB7E6E00C948721CF9301
:1048D000DF93009709F48FC0FC0132971382128294
:1048E00060919005709191056115710581F42081A9
:1048F0003181280F391F80918E0590918F05821785
:10490000930761F5F0938F05E0938E0574C0EB017A
:1049100080E090E0CE17DF0740F42A813B81CE0192
:104920002115310501F1E901F5CFD383C283DF0100
:104930004D915D919D01240F351FC217D30761F47E
:1049400028813981240F351F2E5F3F4F318320830B
:104950002A813B8133832283009729F4F0939105C8
:10496000E093900548C0DC011396FC93EE931297F8
:10497000EC0149915991C40FD51FEC17FD0779F44B
:1049800020813181240F351F2E5F3F4F11963C93BC
:104990002E932281338113963C932E931297E0E05D
:1049A000F0E0DB0112968D919C911397009721F016
:1049B000E62FF72FBC01F5CF9B012E5F3F4FDB01A8
:1049C0008D919C911197820F931F40918E0550916C
:1049D0008F054817590779F4309729F410929105FB
:1049E0001092900502C01382128222503040309300
:1049F0008F0520938E05DF91CF910895DC0101C0D2
:104A00006D9341505040E0F70895AEE0B0E0EBE028
:104A1000F5E20C946D210D891E8986E08C831A8342
:104A200009838FEF9FE79E838D839E01275E3F4F13
:104A3000CE0101966F89788DA9010E942825EF810A
:104A4000F885E00FF11F10822E96E4E00C94892186
:104A5000ACE0B0E0EEE2F5E20C9460216C012B01D9
:104A60008A01FC0117821682838181FD03C02FEF2A
:104A70003FEFC2C14E010894811C911C6FE3362E9A
:104A8000F6019381F20193FD859193FF81912F01AE
:104A9000882309F4AEC1853239F493FD859193FFE3
:104AA00081912F01853229F490E0B6010E942D27D3
:104AB000E7CFEE24FF2420E02032B0F48B3269F0FF
:104AC0008C3228F4803251F0833271F40BC08D3275
:104AD00039F0803349F421602CC02260246029C061
:104AE000286027C0206125C027FD2CC0382F3053F7
:104AF0003A3098F426FF08C08E2D880FE82EEE0C71
:104B0000EE0CE80EE30E15C08F2D880FF82EFF0C6B
:104B1000FF0CF80EF30E20620CC08E3221F426FD3D
:104B200068C1206406C08C3611F4206802C0883643
:104B300049F4F20193FD859193FF81912F01882320
:104B400009F0BACF982F9554933018F090529330C3
:104B500020F40C5F1F4F39820DC0833631F083374C
:104B600071F0833509F058C01EC0F8018081898337
:104B70000E5F1F4F540151E0652E712C12C0F801D9
:104B8000A080B18026FD03C06FEF7FEF02C06E2DC5
:104B900070E00E5F1F4FC5012C870E9422273C0149
:104BA0002C852F7713C0F801A080B18026FD03C0AB
:104BB0006FEF7FEF02C06E2D70E00E5F1F4FC501DB
:104BC0002C870E9417273C012C85206823FF09C0F1
:104BD0001FC080E290E0B6012C870E942D27FA9436
:104BE0002C858F2D90E06816790698F311C0F50199
:104BF00027FD859127FF81915F0190E0B6012C8709
:104C00000E942D272C85F110FA94089461087108F0
:104C10006114710461F7EAC0843611F0893651F5E8
:104C200027FF08C0F80160817181828193810C5F48
:104C30001F4F0AC0F80140815181BA01882777FDD2
:104C40008095982F0E5F1F4F4FE6B42EB22297FF2C
:104C500009C090958095709561957F4F8F4F9F4FBC
:104C6000F0E8BF2AA4012AE030E00E945927782EFC
:104C7000781843C0853731F43FEEB32EB2222AE0D4
:104C800030E023C099EFB92EB2228F3661F0803721
:104C900020F4883509F0ADC012C0803739F088376C
:104CA00009F0A7C005C028E030E00FC020E1B22A1B
:104CB000B4FE02C084E0B82A20E130E006C0B4FEB1
:104CC00002C0E6E0BE2A20E132E0B7FE08C0F801EB
:104CD00060817181828193810C5F1F4F07C0F80151
:104CE0006081718180E090E00E5F1F4FA4010E94FF
:104CF0005927782E7818FFE7BF22B6FE0BC02EEF9B
:104D0000B2227E1438F4B4FE07C0B2FC05C08FEEA8
:104D1000B82202C0A72C01C0AE2C8B2DB4FE0DC052
:104D2000FE01E70DF11D9081903319F4E9EEBE22EA
:104D300007C0A394B2FE04C002C0867809F0A39411
:104D40006B2CB3FC14C0B0FE0FC0AF1410F0E72CF6
:104D50000BC0E72CEF0CEA18AF2C06C080E290E005
:104D6000B6010E942D27A394AF14C0F304C0AF1462
:104D700010F4FA1801C0FF2464FE0FC080E390E035
:104D8000B6010E942D2762FE1DC061FC03C088E7AA
:104D900090E00EC088E590E00BC0862D867891F0FB
:104DA00061FE02C08BE201C080E2B7FC8DE290E0C0
:104DB000B6010E942D2706C080E390E0B6010E9454
:104DC0002D27EA947E14C0F37A94F401E70DF11DC7
:104DD000808190E0B6010E942D277720A9F706C0B8
:104DE00080E290E0B6010E942D27FA94FF20C1F7DF
:104DF00047CEF60126813781C9012C96E1E10C945A
:104E00007C21F999FECF92BD81BDF89A992780B592
:104E10000895262FF999FECF1FBA92BD81BD20BDFE
:104E20000FB6F894FA9AF99A0FBE01960895FC010C
:104E30000590615070400110D8F7809590958E0FC5
:104E40009F1F0895FC016150704001900110D8F738
:104E5000809590958E0F9F1F08950F931F93CF936A
:104E6000DF938C01EB018B8181FF1BC082FF0DC0A2
:104E70002E813F818C819D812817390764F4E88158
:104E8000F9810193F983E88306C0E885F985802FCD
:104E90000995009731F48E819F8101969F838E83BF
:104EA00002C00FEF1FEFC801DF91CF911F910F914B
:104EB0000895FA01AA27283051F1203181F1E894B0
:104EC0006F936E7F6E5F7F4F8F4F9F4FAF4FB1E0FD
:104ED0003ED0B4E03CD0670F781F891F9A1FA11DF8
:104EE000680F791F8A1F911DA11D6A0F711D811DF9
:104EF000911DA11D20D009F468943F912AE0269FBE
:104F000011243019305D3193DEF6CF010895462F1C
:104F10004770405D4193B3E00FD0C9F7F6CF462FFD
:104F20004F70405D4A3318F0495D31FD4052419366
:104F300002D0A9F7EACFB4E0A69597958795779523
:104F40006795BA95C9F700976105710508959B01AA
:104F5000AC010A2E06945795479537952795BA9533
:104F6000C9F7620F731F841F951FA01D0895F89441
:024F7000FFCF71
:104F7200010019324A62788DA2B4C5D4E1ECF4FA88
:104F8200FDFF00000000C50DD80DF20D140E250E18
:104F9200FF6C6F6F6B696E6720666F72202D202524
:104FA20064200A00040F000000000000000000015D
:104FB20002020303030304040404040404040505B5
:104FC200050505050505050505050505050506068D
:104FD200060606060606060606060606060606066F
:104FE200060606060606060606060606060607075D
:104FF200070707070707070707070707070707073F
:10500200070707070707070707070707070707072E
:10501200070707070707070707070707070707071E
:10502200070707070707070707070707070708080C
:1050320008080808080808080808080808080808EE
:1050420008080808080808080808080808080808DE
:1050520008080808080808080808080808080808CE
:1050620008080808080808080808080808080808BE
:1050720008080808080808080808080808080808AE
:10508200080808080808080808080808080808089E
:10509200080808080808080808080808080808088E
:1050A200080808080808080808080808080820006E
:0450B2009205000063
:00000001FF
