:100000000C94DB010C947C040C94A9040C94030262
:100010000C9403020C9403020C9403020C94C20E81
:100020000C9403020C9403020C9403020C9403023C
:100030000C9403020C9403020C9403020C9403022C
:100040000C94D6040C9403020C94AB0C0C94030295
:100050000C9403020C9403020C9403020C9403020C
:100060000C94CE020C940302072C7AA5BA6CC590AE
:10007000DA3B9365FC8BBC53F810FD3C5692834DE4
:10008000BD879D3AB63DCBC9BF5BBE73DA0FC93F92
:1000900005A84CCDB2D44EB93836A9020C50B9914E
:1000A0008688083CA6AAAA2ABE000000803F00005D
:1000B0000000240027002A0000000000250028007E
:1000C0002B00000000002300260029000404040483
:1000D00004040404020202020202030303030303F2
:1000E00001020408102040800102040810200102CF
:1000F00004081020000000070002010000030406AD
:100100000000000000000000024B4A4A49494848EC
:1001100047474646454444444343424241414040A8
:100120003F3F3F3E3E3D3D3D3C3C3B3B3B3A3A3A08
:100130003939393838383737373636363535353452
:10014000343434333333323232323131313130308E
:1001500030302F2F2F2F2E2E2E2E2E2D2D2D2D2CBD
:100160002C2C2C2C2B2B2B2B2B2A2A2A2A2A2A29E3
:100170002929292928282828282827272727272701
:10018000262626262626262525252525252524241A
:10019000242424242423232323232323232222222D
:1001A000222222222221212121212121212120203C
:1001B000202020202020201F1F1F1F1F1F1F1F1F48
:1001C0001F1E1E1E1E1E1E1E1E1E1E1D1D1D1D1D53
:1001D0001D1D1D1D1D1D1C1C1C1C1C1C1C1C1C1C59
:1001E0001C1C1B1B1B1B1B1B1B1B1B1B1B1B1B1A5E
:1001F0001A1A1A1A1A1A1A1A1A1A1A1A1A19191962
:100200001919191919191919191919191818181862
:100210001818181818181818181818181817171761
:100220001717171717171717171717171717161660
:10023000161616161616161616161616161616165E
:10024000161615151515151515151515151515155C
:100250001515151515151514141414141414141457
:10026000141414141414141414141414141414134F
:10027000131313131313131313131313131313134E
:100280001313131313131313131212121212121245
:10029000121212121212121212121212121212123E
:1002A0001212121212121111111111111111111138
:1002B000111111111111111111111111111111112E
:1002C0001111111111111110101010101010101027
:1002D000101010101010101010101010101010101E
:1002E0001010101010101010101010100F0F0F0F12
:1002F0000F0F0F0F0F0F0F0F0F0F0F0F0F0F0F0F0E
:100300000F0F0F0F0F0F0F0F0F0F0F0F0F0F0F0FFD
:100310000F0F0F0F0F0F0E0E0E0E0E0E0E0E0E0EF7
:100320000E0E0E0E0E0E0E0E0E0E0E0E0E0E0E0EED
:100330000E0E0E0E0E0E0E0E0E0E0E0E0E0E0E0EDD
:100340000E0E0E0E0E0E0D0D0D0D0D0D0D0D0D0DD7
:100350000D0D0D0D0D0D0D0D0D0D0D0D0D0D0D0DCD
:100360000D0D0D0D0D0D0D0D0D0D0D0D0D0D0D0DBD
:100370000D0D0D0D0D0D0D0D0D0D0D0D0D0D0C0CAF
:100380000C0C0C0C0C0C0C0C0C0C0C0C0C0C0C0CAD
:100390000C0C0C0C0C0C0C0C0C0C0C0C0C0C0C0C9D
:1003A0000C0C0C0C0C0C0C0C0C0C0C0C0C0C0A009B
:1003B0004B08510E3F1211241FBECFEFD8E0DEBF15
:1003C000CDBF12E0A0E0B1E0EEE0FAE402C005909B
:1003D0000D92A233B107D9F715E0A2E3B2E001C054
:1003E0001D92A038B107E1F713E0C6EBD3E004C0DB
:1003F0002297FE010E948221C03BD107C9F70E94CB
:10040000C8130C9405250C94000010925602449ACF
:10041000459AE9EBF0E080818E7F808380818D7F3B
:10042000808388E48093B80085E48093BC000895BD
:10043000880F8093BA000895413210F040E02FC039
:10044000909156029923E1F791E0909356029FEF25
:100450009093550210923302942F9150909334024E
:10046000880F81608093320285EE8093BC0080917A
:1004700056028130E1F380913302841710F44091E9
:10048000330280E090E009C0FB01E80FF91FDC01B6
:10049000AB5CBD4F2C91208301968417A8F3842F69
:1004A0000895413210F081E0089590915602992309
:1004B000E1F792E0909356029FEF909355021092CD
:1004C000330240933402DB01E5E3F2E050E04E0FEB
:1004D0005F1F02C09D919193E417F507D9F790E053
:1004E000880F991F8093320285EE8093BC002223EF
:1004F00099F080915602823079F4FBCF80915502B9
:10050000803211F482E0089580915502803311F019
:1005100084E0089583E00895809155028F3F71F73C
:1005200080E00895613210F081E008952091560234
:10053000243011F082E0089560937B02DC01EEE745
:10054000F2E070E06E0F7F1F02C08D918193E6177D
:10055000F707D9F780E008959093790280937802A5
:10056000089590937D0280937C020895882311F072
:1005700085EC01C085E88093BC00089585ED8093EB
:10058000BC008091BC0084FDFCCF109256020895FF
:1005900085EC8093BC001092560208951F920F9232
:1005A0000FB60F9211242F933F934F935F936F9346
:1005B0007F938F939F93AF93BF93EF93FF9380911C
:1005C000B90090E0887F90708036910509F4DFC013
:1005D00081369105E4F58832910509F47EC08932AF
:1005E0009105C4F48031910509F472C081319105FF
:1005F00044F4009709F434C18830910509F03BC1F7
:1006000067C08831910509F468C08032910509F00E
:1006100032C17EC08034910509F4A0C081349105B7
:100620004CF48033910509F47EC08833910509F0BC
:1006300022C184C08035910509F484C088359105B4
:1006400009F491C08834910509F015C198C0883922
:10065000910509F4FDC089399105ECF488379105BD
:1006600009F495C0893791054CF48836910509F451
:100670008EC08037910509F0FEC089C08838910589
:1006800009F4E6C08039910509F487C080389105E6
:1006900009F0F1C082C0803B910509F4B0C0813BF4
:1006A00091054CF4803A910509F489C0883A910586
:1006B00009F0E1C0A4C0803C910509F4CDC0883C9C
:1006C000910509F4C9C0883B910509F0D4C0ACC0BC
:1006D000809132028093BB00B9C090913302809127
:1006E0003402981768F480913302E82FF0E0EB5C55
:1006F000FD4F90819093BB008F5F80933302A6C023
:1007000085ED8093BC008091BC0084FDFCCFB1C01E
:1007100080E28093550285ED8093BC008091BC00FF
:1007200084FDFCCFA6C080E38093550285ED8093C5
:10073000BC008091BC0084FDFCCF9BC088E380930B
:1007400055028AC0809133029091BB00E82FF0E0FF
:10075000EB5CFD4F90838F5F809333029091330267
:100760008091340271C0809133029091BB00E82FD8
:10077000F0E0EB5CFD4F90838F5F8093330285ED5B
:100780008093BC008091BC0084FDFCCF72C083E0EC
:10079000809356021092570259C0809157028032BE
:1007A00008F056C0809157029091BB00E82FF0E00E
:1007B000E85AFD4F90838F5F8093570247C0809126
:1007C0005702803230F4E0915702F0E0E85AFD4FD2
:1007D000108285ED8093BC008091BC0084FDFCCF2D
:1007E0001092560260915702E0917802F0917902DE
:1007F00088E592E070E00995109257022DC084E0E0
:100800008093560210927A0210927B02E0917C0251
:10081000F0917D02099580917B02882329F481E083
:1008200080937B0210927E0280917A02E82FF0E0A2
:10083000E258FD4F90819093BB008F5F80937A02C6
:1008400090917A0280917B02981710F485EC01C098
:1008500085E88093BC000FC085EC8093BC0009C084
:100860001092550285ED8093BC008091BC0084FD00
:10087000FCCF10925602FF91EF91BF91AF919F91E3
:100880008F917F916F915F914F913F912F910F9039
:100890000FBE0F901F9018958230E8F4E82FF0E01B
:1008A000EE0FFF1FE256FD4F71836083813041F0F0
:1008B000809169008C7F842B80936900E89A089569
:1008C00080916900440F551F440F551F837F842B6F
:1008D00080936900E99A0895823068F4813011F0BC
:1008E000E89801C0E998E82FF0E0EE0FFF1FE2560C
:1008F000FD4F1182108208951F920F920FB60F9232
:1009000011242F933F934F935F936F937F938F9314
:100910009F93AF93BF93EF93FF9380919E0290912B
:100920009F02009729F0E0919E02F0919F020995A5
:10093000FF91EF91BF91AF919F918F917F916F91B7
:100940005F914F913F912F910F900FBE0F901F908D
:1009500018951F920F920FB60F9211242F933F9369
:100960004F935F936F937F938F939F93AF93BF93B7
:10097000EF93FF938091A0029091A102009729F03C
:10098000E091A002F091A1020995FF91EF91BF9132
:10099000AF919F918F917F916F915F914F913F9117
:1009A0002F910F900FBE0F901F9018951F920F92CE
:1009B0000FB60F9211242F933F938F939F93AF9372
:1009C000BF938091A6029091A702A091A802B09136
:1009D000A9023091AA020196A11DB11D232F2D5FFE
:1009E0002D3720F02D570196A11DB11D2093AA028D
:1009F0008093A6029093A702A093A802B093A902A5
:100A00008091A2029091A302A091A402B091A502AC
:100A10000196A11DB11D8093A2029093A302A09301
:100A2000A402B093A502BF91AF919F918F913F9186
:100A30002F910F900FBE0F901F9018958FB7F894BD
:100A40002091A6023091A7024091A8025091A902DC
:100A50008FBFB901CA0108959FB7F8942091A202EF
:100A60003091A3024091A4025091A50286B5A89BA3
:100A700006C08F3F21F02F5F3F4F4F4F5F4F9FBF0B
:100A8000542F432F322F2227280F311D411D511D76
:100A900082E0220F331F441F551F8A95D1F7B901F9
:100AA000CA010895EF92FF920F931F93CF93DF93A4
:100AB0007B018C010E942C05EB010FC00E942C05CC
:100AC0006C1B7D0B83E0683E7807C0F30894E10857
:100AD000F10801091109C851DC4FE114F1040105C5
:100AE000110561F7DF91CF911F910F91FF90EF906A
:100AF0000895019739F0880F991F880F991F029761
:100B00000197F1F70895789484B5826084BD84B527
:100B1000816084BD85B5826085BD85B5816085BDF8
:100B2000EEE6F0E0808181608083E1E8F0E0108211
:100B3000808182608083808181608083E0E8F0E052
:100B4000808181608083E1EBF0E08081846080833C
:100B5000E0EBF0E0808181608083EAE7F0E0808173
:100B600084608083808182608083808181608083D3
:100B70008081806880831092C10008958093000175
:100B800008958E3008F08E508770909100019295F4
:100B9000990F990F907C982B90937C0080917A000C
:100BA000806480937A0080917A0086FDFCCF20914A
:100BB000780030917900932F80E030E0282B392B9A
:100BC000C90108951F93CF93DF93182FEB0161E0C4
:100BD0000E944206209709F44AC0CF3FD10509F48C
:100BE00049C0E12FF0E0EC50FF4F84918330C1F019
:100BF000843028F4813051F08230B1F50CC0863059
:100C000019F1873049F1843079F514C084B58068D2
:100C100084BDC7BD33C084B5806284BDC8BD2EC04D
:100C200080918000806880938000D0938900C09379
:100C3000880024C080918000806280938000D093DF
:100C40008B00C0938A001AC08091B00080688093A6
:100C5000B000C093B30012C08091B0008062809356
:100C6000B000C093B4000AC0C038D1051CF4812F75
:100C700060E002C0812F61E00E949406DF91CF9175
:100C80001F910895282F30E0C90180529F4FFC0129
:100C90009491F901E453FF4FE491EE23B9F0F0E0B1
:100CA000EE0FFF1FE255FF4FA591B491662341F46B
:100CB0002FB7F8948C91909589238C932FBF08952A
:100CC0002FB7F8948C91892B8C932FBF0895833084
:100CD00071F0843028F48130A1F0823021F514C005
:100CE0008630B1F08730D1F08430E9F404C08091CF
:100CF00080008F7703C0809180008F7D809380007B
:100D0000089584B58F7702C084B58F7D84BD089522
:100D10008091B0008F778093B00008958091B000EB
:100D20008F7D8093B00008950F931F93DF93CF932F
:100D30000F92CDB7DEB7282F30E0F901EC50FF4F0E
:100D40008491F901E052FF4F149124533F4FF90170
:100D500004910023E1F0882321F069830E94670653
:100D60006981E02FF0E0EE0FFF1FE854FF4FA591DF
:100D7000B491662331F49FB7F8948C911095812338
:100D800004C09FB7F8948C91812B8C939FBF0F90D8
:100D9000CF91DF911F910F9108950F931F93282FEB
:100DA00030E0F901EC50FF4F8491F901E052FF4F20
:100DB000049124533F4FF9011491112319F420E0B9
:100DC00030E013C0882311F00E946706E12FF0E0A5
:100DD000EE0FFF1FEE53FF4FA591B4918C9120E0D1
:100DE00030E0802311F021E030E0C9011F910F9124
:100DF00008956F927F928F929F92AF92BF92CF92FF
:100E0000DF92FF920F931F93962F682F70E0FB01E4
:100E1000E052FF4F149164537F4FFB01F4909923EC
:100E200011F0012F01C000E0CA01B90120E83EE342
:100E300040E050E00E94E1200E94272159016A0110
:100E40008F2D90E0880F991F8E539F4F20E030E048
:100E5000A901FC01A591B4910AC02A153B054C05D6
:100E60005D0509F449C02F5F3F4F4F4F5F4F6C91B5
:100E70006123601791F30BC02A153B054C055D05F6
:100E800009F43AC02F5F3F4F4F4F5F4F03C0FC0143
:100E9000A591B4916C916123601771F76624772452
:100EA0004301FC01A591B49110C0C401B301620FCC
:100EB000731F841F951F6A157B058C059D05E1F046
:100EC0000894611C711C811C911C8C9181238017DA
:100ED00061F3C401B30128E032E540E050E00E9434
:100EE000E1206058714C8F4F9F4F20E83EE340E077
:100EF00050E00E94272103C020E030E0A901B901A1
:100F0000CA011F910F91FF90DF90CF90BF90AF90DB
:100F10009F908F907F906F900895AF92BF92CF92E5
:100F2000DF92FF920F931F93CF93DF93082F162F1B
:100F3000F42EC7E0D0E0C22EDD2487E0A82EB12C2D
:100F4000FF2059F4B5016C1B7D0BC60102C09595BD
:100F500087956A95E2F7BC0107C0B6010C2E02C066
:100F6000759567950A94E2F761707070802F0E9402
:100F70009406812F61E00E949406812F60E00E9418
:100F8000940621979FEFCF3FD907D1F6DF91CF91FC
:100F90001F910F91FF90DF90CF90BF90AF90089579
:100FA000CF92DF92EF92FF920F931F93CF93DF9335
:100FB000082F162FE42EC7E0D0E0FF2497E0C92EBB
:100FC000D12C812F61E00E949406EE2071F4802FD5
:100FD0000E94CD0696012C1B3D0BAC0102C0440FB4
:100FE000551F2A95E2F7F42A0AC0802F0E94CD06E9
:100FF0000C2E02C0880F991F0A94E2F7F82A812F5D
:1010000060E00E94940621973FEFCF3FD307C9F6D7
:101010008F2DDF91CF911F910F91FF90EF90DF9077
:10102000CF90089508950895FC018081823069F081
:10103000833018F4813079F405C0833049F084306E
:1010400051F408C06093B30008956093B40008950C
:1010500067BD089568BD0895CF93DF93EC01888143
:101060009981689F9001699F300D789F300D112400
:1010700040E050E060E077E883E993E00E942721B8
:101080002B833C834D835E831F82188619861A86C4
:10109000DF91CF9108950895E0EBF0E0908193689F
:1010A000908387708093B1001092B3008BE061E071
:1010B0000E9442060895E0EBF0E0908193629083F5
:1010C00087708093B1001092B40083E061E00E94C9
:1010D0004206089584B5836884BD17BC86E061E04C
:1010E0000E944206089584B5836284BD18BC85E0E1
:1010F00061E00E9442060895CF93DF938CE060E0A8
:101100000E94940688E060E00E949406C7E0D0E068
:1011100084E060E00E9494068091AC0290E00C2E86
:1011200002C0959587950A94E2F780FF03C088E096
:1011300061E002C088E060E00E94940684E061E023
:101140000E94940621973FEFCF3FD30709F78CE029
:1011500061E00E949406DF91CF910895CF93DF93D1
:10116000EC018A81813029F450E178E0F2E0E4E09A
:1011700008C0823011F080E0E1C050E470E8F1E096
:10118000E0E2413041F48B85982F9695969596959F
:1011900090FF0AC013C0423071F48B85982F96954A
:1011A0009695969590FF0AC0613011F4805F01C05A
:1011B00080518B8751C0433039F48B85613011F4F5
:1011C000885FF7CF8850F5CF443009F045C08B8554
:1011D000613011F48F5F01C081508B879B859F73B5
:1011E0009B87903150F4892F90E0A1E1B1E0A81BDA
:1011F000B90B3C918F5F9E4F1AC0892F805180316F
:1012000048F4892F90E0DC01AF50BF4F3C91A1E240
:10121000B1E01EC0892F8052803158F4892F90E0B0
:10122000A1E3B1E0A81BB90B3C918F519F4FDC01AA
:1012300011C0892F8053803118F030E020E00EC0BB
:10124000892F90E0DC01AF52BF4F3C91A1E4B1E0A7
:10125000A81BB90B2C9102C03FEF2FEF9B859F730A
:101260009B878A81813029F43093B3002093B400A6
:1012700004C0823011F437BD28BD2F2F2E2B352FFF
:10128000372B832F822B80956091AC02862380932D
:10129000AC02443019F5903118F4822B8093AC02E3
:1012A000892F8051803130F4F72B2091AC022F2B05
:1012B0002093AC02892F8052803130F4752B20911D
:1012C000AC02272B2093AC029053903190F55E2B0B
:1012D0009091AC02952B9093AC022BC0969596956D
:1012E00096959430E1F0953038F4923089F093304F
:1012F00088F4913039F408C09630A9F0963088F01F
:10130000973099F08E2B01C0822B8093AC0211C0D4
:101310008F2BFBCF7F2B782B7093AC020AC0872BCF
:10132000F4CF832BF2CF852BF0CF5E2B582B50932D
:10133000AC028BEA92E00E947C088B85DF91CF9112
:1013400008955F926F927F928F929F92AF92BF9219
:10135000CF92DF92EF92FF920F931F93CF93DF9381
:10136000EC016B01542EB22EEB80FC800D811E81AE
:1013700023E0B216E1F416950795F794E794C801B7
:10138000B70128EE33E040E050E00E942721722EA2
:10139000832E942EA52EC801B70128EE33E040E03D
:1013A00050E00E9427217B018C01662445C084E027
:1013B000B81629F794E016950795F794E7949A954F
:1013C000D1F784E0CC0CDD1C8A95E1F7D8CFCE01B3
:1013D000652D4B2D0E94AE08682E672D782D892D26
:1013E0009A2D0E9452058F819885A985BA858E0D08
:1013F0009F1DA01FB11F8F839887A987BA87883E3A
:1014000023E0920720E0A20720E0B20790F061E01D
:1014100070E080E090E00E9452058F819885A98558
:10142000BA85885E9340A040B0408F839887A98793
:10143000BA870894C108D108C114D10441F684E0E8
:10144000B816C9F512C061E070E080E090E00E943B
:1014500052058F819885A985BA85885E9340A04002
:10146000B0408F839887A987BA87662021F120E151
:10147000621609F1CE01652D44E00E94AE08682E87
:10148000672D782D892D9A2D0E9452058F81988580
:10149000A985BA858E0D9F1DA01FB11F8F839887C8
:1014A000A987BA87883E23E0920720E0A20720E0C0
:1014B000B207D8F2C8CFDF91CF911F910F91FF9063
:1014C000EF90DF90CF90BF90AF909F908F907F90E4
:1014D0006F905F900895FC018281813051F480917A
:1014E000AC02817E8093AC028BEA92E00E947C0881
:1014F0000895823049F48091AC028E718093AC02E1
:101500008BEA92E00E947C080895FC018081823081
:1015100061F0833020F4813009F064C009C0833069
:1015200051F0843009F05EC009C084E091E008C049
:1015300083E092E005C087E095E002C086E090E09D
:101540006230E1F06430A1F1613009F04BC021E07C
:1015500030E0A90102C0440F551F8A95E2F7842F9D
:101560008095A90102C0440F551F9A95E2F720917A
:10157000AC02242B82238093AC0215C021E030E022
:10158000A90102C0440F551F9A95E2F7942F909538
:101590004091AC02942302C0220F331F8A95E2F7D8
:1015A000922B9093AC028BEA92E00E947C08089503
:1015B00021E030E0A90102C0440F551F9A95E2F7DF
:1015C000B90102C0660F771F8A95E2F7CB01842B21
:1015D00080952091AC0228232093AC028BEA92E004
:1015E0000E947C080895CF93DF93EC018CE061E0CA
:1015F0000E94420687E061E00E94420688E061E0C6
:101600000E94420684E061E00E9442061092AC0211
:10161000CE010E947C0887E060E00E949406DF9182
:10162000CF9108951F93DF93CF930F92CDB7DEB77D
:10163000FC01142F608341838BEA92E069830E944E
:10164000F30A69816230B9F0633018F46130C9F58A
:1016500005C06330E9F06430A1F527C08091AC0289
:10166000837F8093AC028BEA92E00E947C08812FFA
:101670000E944C0826C08091AC028D7E8093AC0203
:101680008BEA92E00E947C08812F0E945B0819C0BF
:101690008091AC028F758093AC028BEA92E00E943D
:1016A0007C08812F0E946A080CC08091AC028E7B5E
:1016B0008093AC028BEA92E00E947C08812F0E940A
:1016C00073080F90CF91DF911F9108951F93DF93BF
:1016D000CF930F92CDB7DEB7FC01142F6083418307
:1016E0008BEA92E069830E94F30A69816230B9F063
:1016F000633018F46130C9F505C06330E9F0643037
:10170000A1F527C08091AC02837F8093AC028BEA65
:1017100092E00E947C08812F0E944C0826C0809194
:10172000AC028D7E8093AC028BEA92E00E947C0832
:10173000812F0E945B0819C08091AC028F75809345
:10174000AC028BEA92E00E947C08812F0E946A081A
:101750000CC08091AC028E7B8093AC028BEA92E04D
:101760000E947C08812F0E9473080F90CF91DF9117
:101770001F910895EF92FF920F931F93DF93CF93E2
:101780000F92CDB7DEB77C018B018BEA92E04983E3
:101790000E94F30AF7011183008349814283138673
:1017A000413029F58091AC02817E8093AC028BEAB6
:1017B00092E00E947C088BE061E00E94420683E098
:1017C00061E00E9442068BE061E00E94940683E0A3
:1017D00061E00E94940681E00E944C0881E00E9432
:1017E0005B088FEF8093B3008093B40024C0423035
:1017F00011F58091AC028E718093AC028BEA92E07D
:101800000E947C0885E061E00E94420686E061E07B
:101810000E94420685E061E00E94940686E061E055
:101820000E94940681E00E946A0881E00E94730889
:101830008FEF87BD88BD0F90CF91DF911F910F91E2
:10184000FF90EF900895EF92FF920F931F93DF9315
:10185000CF930F92CDB7DEB77C018B018BEA92E07C
:1018600049830E94F30AF70111830083498142836F
:101870001386413029F58091AC02817E8093AC02C1
:101880008BEA92E00E947C088BE061E00E944206B5
:1018900083E061E00E9442068BE061E00E949406D2
:1018A00083E061E00E94940681E00E944C0881E0A0
:1018B0000E945B088FEF8093B3008093B40024C034
:1018C000423011F58091AC028E718093AC028BEAAC
:1018D00092E00E947C0885E061E00E94420686E07A
:1018E00061E00E94420685E061E00E94940686E085
:1018F00061E00E94940681E00E946A0881E00E94F3
:1019000073088FEF87BD88BD0F90CF91DF911F9136
:101910000F91FF90EF900895089520E030E0FC01D2
:101920008081882311F421E030E0C901089521E08D
:10193000FC012083089508950E94512408950E9477
:10194000AF230895CB01642F0E94F7240895CB01A3
:101950000E94EF2408951F920F920FB60F92112448
:101960002F933F934F936F937F938F939F93EF9317
:10197000FF934091C60020912D0330912E03C901A1
:1019800001968F77907060912F03709130038617C6
:10199000970741F023553D4FF901408390932E0363
:1019A00080932D03FF91EF919F918F917F916F9184
:1019B0004F913F912F910F900FBE0F901F90189550
:1019C0008F92AF92CF92DF92EF92FF920F931F937D
:1019D000DF93CF93CDB7DEB7FC0186E191E0918331
:1019E000808373836283558344833783268311877F
:1019F0000087F386E286D586C486A68687868D858F
:101A0000808B8E85818B8F85828BCF91DF911F910B
:101A10000F91FF90EF90DF90CF90AF908F9008954F
:101A20008F92AF92CF92DF92EF92FF920F931F931C
:101A3000DF93CF93CDB7DEB7FC0186E191E09183D0
:101A4000808373836283558344833783268311871E
:101A50000087F386E286D586C486A68687868D852E
:101A6000808B8E85818B8F85828BCF91DF911F91AB
:101A70000F91FF90EF90DF90CF90AF908F900895EF
:101A8000CF93DF93EC019A01AB01E885F985203013
:101A900081EE380780E0480780E0580709F445C028
:101AA00081E090E00A8802C0880F991F0A94E2F74B
:101AB000808360E079E08DE390E00E94272121504F
:101AC0003040404050405695479537952795EC81DA
:101AD000FD813083EE81FF812083EA85FB85808153
:101AE00021E030E0A9010E8402C0440F551F0A9482
:101AF000E2F7842B8083EA85FB858081A9010F842E
:101B000002C0440F551F0A94E2F7842B8083EA85B4
:101B1000FB858081088802C0220F331F0A94E2F7F8
:101B2000822B8083DF91CF910895108220E130E0F5
:101B3000CECFFC01A285B3853C9181E090E0AC0161
:101B4000068402C0440F551F0A94E2F7242F209503
:101B500023232C93A285B3853C91AC01078402C05A
:101B6000440F551F0A94E2F7242F209523232C932A
:101B7000A285B3852C91008802C0880F991F0A9412
:101B8000E2F7809582238C930895FC0182819381F2
:101B9000FC01E058FF4F208131818E579F4FFC019F
:101BA00080819181281B390B2F773070C9010895EE
:101BB000FC0182819381FC01EE57FF4F208131812E
:101BC000FC01E058FF4F408151814217530719F43F
:101BD0002FEF3FEF05C0820F931FFC01208130E003
:101BE000C9010895DC0112962D913C911397F901DA
:101BF000EE57FF4F80819181D901A058BF4F4D9181
:101C00005C9111974817590719F42FEF3FEF0AC05D
:101C1000280F391FD9012C9101968F7790709183ED
:101C2000808330E0C9010895DC0112968D919C916A
:101C30001397FC01E058FF4F8E579F4FDC018D91A9
:101C40009C911197918380830895FC01A085B185B3
:101C500021898C9190E0022E02C0959587950A9477
:101C6000E2F780FFF6CF0484F585E02D60830895C8
:101C70000F931F93CF93DF93EC018B0109C0E88191
:101C8000F9810084F185E02DCE0109950F5F1F4F8A
:101C9000F8016081662399F7DF91CF911F910F9131
:101CA000089586E191E090933203809331038DEAA9
:101CB00092E0909334038093330385EC90E090930B
:101CC00036038093350384EC90E09093380380933F
:101CD000370380EC90E090933A038093390381ECD2
:101CE00090E090933C0380933B0386EC90E09093CC
:101CF0003E0380933D0384E080933F0383E0809321
:101D0000400387E08093410385E08093420381E0B4
:101D1000809343030895813041F0813018F0823080
:101D2000D1F409C010926E00089580916F008D7FEC
:101D300080936F000895809170008D7F8093700074
:101D400081E08093B0008091B100887F84608093AF
:101D5000B1001092B30008951F93182F80912001B5
:101D6000811711F08FEF06C0E8E0F1E084919FEF5A
:101D7000909320010E948B0E812F60E00E949406B8
:101D80001F9108951F920F920FB60F9211242F9357
:101D90003F934F935F936F937F938F939F93AF93F3
:101DA000BF93EF93FF938091520390915303A091BF
:101DB0005403B09155030097A105B10551F1E0918D
:101DC0005603F091570380819091580389278083AF
:101DD0008091520390915303A0915403B091550305
:101DE000181619061A061B06C4F480915203909126
:101DF0005303A0915403B09155030197A109B10970
:101E00008093520390935303A0935403B0935503CC
:101E100004C0809120010E94AC0EFF91EF91BF9110
:101E2000AF919F918F917F916F915F914F913F9172
:101E30002F910F900FBE0F901F9018952F923F92E9
:101E40004F925F926F927F928F929F92AF92BF92CA
:101E5000DF92EF92FF920F931F93DF93CF9300D007
:101E600000D0CDB7DEB71B0129833A834B835C8357
:101E700090912001981721F09F3F09F0DCC104C028
:101E8000E8E0F1E0D4907FC080932001E8E0F1E049
:101E9000D4902FEFD21609F4CEC191E0D91639F1C2
:101EA000A2E0DA1609F449C0DD2009F06CC014BCC8
:101EB00015BC94B5926094BD95B5916095BD282FE1
:101EC00030E0F901E453FF4FE491F0E0EE0FFF1F23
:101ED000E854FF4F45915491509349034093480370
:101EE00020523F4FF901249120934A034EC0109293
:101EF0008000109281009091810098609093810001
:101F000090918100916090938100282F30E0F90139
:101F1000E453FF4FE491F0E0EE0FFF1FE854FF4F52
:101F2000459154915093500340934F0320523F4F9B
:101F3000F90124912093510328C01092B00010920F
:101F4000B1009091B00092609093B0009091B10078
:101F500091609093B100282F30E0F901E453FF4FD6
:101F6000E491F0E0EE0FFF1FE854FF4F45915491CC
:101F7000509357034093560320523F4FF901249149
:101F80002093580302C0D7FC56C161E00E9442066C
:101F9000DD2021F0F2E0DF1609F0BEC04101AA24E5
:101FA000BB2460E072E18AE790E0A50194010E9401
:101FB000272129013A01830172010894E108F108FF
:101FC000010911092FEFE216F1040105110509F0CD
:101FD00008F499C060E472E48FE090E0A5019401F8
:101FE0000E94272179018A010894E108F10801097A
:101FF000110982E0D816C1F49FEFE916F10401053A
:10200000110509F008F484C060E970ED83E090E008
:10201000A50194010E94272179018A010894E10811
:10202000F1080109110983E0AFEFEA16F104010597
:10203000110509F008F468C068E478EE81E090E0EA
:10204000A50194010E94272179018A010894E108E1
:10205000F10801091109DD2011F483E01EC0B2E08E
:10206000DB1611F084E019C0EFEFEE16F104010564
:10207000110509F010F484E04CC064E274EF80E0D4
:1020800090E0A50194010E94272179018A0108941A
:10209000E108F1080109110985E0FFEFEF16F104ED
:1020A0000105110589F180F162E17AE780E090E0B5
:1020B000A50194010E94272179018A010894E10871
:1020C000F10801091109DD2011F086E001C084E06A
:1020D0002FEFE216F10401051105B1F0A8F083011C
:1020E00072019AE016950795F794E7949A95D1F7BF
:1020F0000894E108F10801091109DD2011F087E0D9
:1021000008C085E003C081E0DD2019F485BD3AC038
:1021100082E08093B10036C04101AA24BB2460E074
:1021200072E18AE790E0A50194010E9427217901DC
:102130008A010894E108F1080109110980E0E81614
:1021400080E0F80681E0080780E0180710F491E0CD
:1021500010C068E478EE81E090E0A50194010E944F
:10216000272179018A010894E108F1080109110980
:1021700093E0A1E0DA1631F480918100887F892B09
:102180008093810089819A81AB81BC810097A105F0
:10219000B10521F48FEF9FEFDC0115C0B101660F8F
:1021A000771F80E090E029813A814B815C810E9419
:1021B000E12028EE33E040E050E00E942721822F0A
:1021C000932FA42FB52FE1E0DE16A1F0F2E0DF1689
:1021D00019F1DD2081F5E7BC80934403909345031A
:1021E000A0934603B093470380916E008260809372
:1021F0006E0021C0F0928900E092880080934B032A
:1022000090934C03A0934D03B0934E0380916F00C5
:10221000826080936F000FC0E092B30080935203FE
:1022200090935303A0935403B0935503809170008F
:102230008260809370000F900F900F900F90CF915D
:10224000DF911F910F91FF90EF90DF90BF90AF90C3
:102250009F908F907F906F905F904F903F902F90C6
:1022600008950895089581E080939E0360937B0311
:1022700010929C0310929D03089581E080939E0329
:1022800060937B0310929C0310929D0308958091AC
:102290007A0390917903891B089590917903809135
:1022A0007A03981710F080E00895E92FF0E0E75ADC
:1022B000FC4F80819F5F909379030895CF93DF93C4
:1022C0009C01CB01E091A103F091A2033097D9F0DA
:1022D0005091790340917A035417A8F040E009C067
:1022E000DB01A75ABC4F620F731FEB0158815C934F
:1022F0004F5F642F70E06817790794F310927903A9
:1023000080937A030995DF91CF910895E0919F031F
:10231000F091A003309729F010929C0310929D0336
:10232000099508957093A2036093A1030895709393
:10233000A00360939F030895DF93CF930F92CDB7CF
:10234000DEB7698380919E03882389F080919D0385
:10235000803290F480919C03E82FF0E0E458FC4F29
:1023600060838F5F80939C0380939D0305C0CE01A3
:10237000019661E00E9492020F90CF91DF91089543
:102380000E949C110895CF92DF92EF92FF921F93CB
:10239000DF93CF930F92CDB7DEB76C01162F972F37
:1023A00080919E03882381F0E62EF72E08C0C60197
:1023B000F70161917F0149830E949C1149818E2D13
:1023C000811B8417A0F304C0862F642F0E94920201
:1023D0000F90CF91DF911F91FF90EF90DF90CF9002
:1023E0000895DB010D900020E9F7AD014150504008
:1023F000461B570B0E94C311089580917B036CE725
:1024000073E040919D0321E00E94510210929C03D1
:1024100010929D0310929E030895862F413208F07A
:1024200040E269E573E00E941C02109279038093F8
:102430007A0308950E940D12089510927903109264
:102440007A0310929C0310929D030E940502089546
:10245000CF93DF93EC01862F0E94180286E891E16A
:102460000E94B1028EE591E10E94AC02CE010E9471
:102470001D12DF91CF9108950E942812089583EADA
:1024800093E00E94801887EA93E063E041E00E94B5
:10249000120B89EA93E064E041E00E94120B8BEAA0
:1024A00093E068EC70E041E00E94BA0B08950F934E
:1024B0001F93CF93DF938EEB93E068EC0E94DE14C2
:1024C00068E873E180E090E00E94520586E894E0BD
:1024D00068EC0E94DE148EEB93E066E874E04EE454
:1024E00055E023E535E00E94CF1383EA93E00E9494
:1024F0003D189093B8038093B703C3E5D5E00991E5
:10250000199180E060E00E944114282FC80162E127
:1025100070E00E940021822F860F61E00E9441142A
:1025200068E873E180E090E00E94520585E0CB35D9
:10253000D80729F780E061E00E94411460915305BB
:10254000709154058091B7039091B803680F791F7B
:1025500080914E050E94791583EA93E00E943D1810
:102560009093B8038093B70307C08091B70390910D
:10257000B80360E00E94101783E00E94C414883101
:10258000910598F70E94D0158EE495E063E575E01B
:1025900042E02DE535E00EE515E00E94DB1583EA0B
:1025A00093E00E943D189C019093B8038093B70379
:1025B00080915D058C3310F48CE303C0853608F000
:1025C00084E660915E0570915F05620F731F0E9443
:1025D000791583EA93E00E943D189093B8038093A5
:1025E000B70307C08091B7039091B80360E00E94E1
:1025F000101783E00E94C4148831910598F70E9457
:10260000D0158EE495E063E575E043E02DE535E017
:102610000EE515E00E94DB1583EA93E00E943D1869
:102620009C019093B8038093B70380915D058C3330
:1026300010F48CE303C0853608F084E660915E05F3
:1026400070915F05620F731F0E94791583EA93E012
:102650000E943D189093B8038093B70307C0809100
:10266000B7039091B80360E00E94101783E00E94C6
:10267000C4148F31910598F70E94D0158EE495E02F
:1026800063E575E044E02DE535E00EE515E00E94D8
:10269000DB1583EA93E00E943D189C019093B803F8
:1026A0008093B70380915D058C3310F48CE303C0F5
:1026B000853608F084E660915E0570915F05620FD3
:1026C000731F0E94791583EA93E00E943D1890934E
:1026D000B8038093B70307C08091B7039091B80304
:1026E00060E00E94101783E00E94C4148F319105AE
:1026F00098F70E94D01583EA93E00E943D189093CA
:10270000B8038093B7038091B7039091B80360E05A
:102710000E94101760ED77E080E090E00E94520583
:102720008091B7039091B80361E00E94101760EDAB
:1027300077E080E090E00E945205E5CF8DE061E017
:102740000E94420682E060E00E94420683E060E070
:102750000E94420680E00E94BE0581E061E00E9486
:10276000411480E061E00E94411480E490E060E068
:1027700070E00E948A238093BC039093BD0381E3A1
:1027800093E040E051EE60E070E00E94400D08955B
:102790000E9483050E949E130E945712FDCFBF9294
:1027A000CF92DF92EF92FF920F931F93CF93DF931D
:1027B0008901F9017901A0E0B0E0E70119921992CD
:1027C0007E019A012A0F3B1FE90118821196A4305D
:1027D000B10599F730E0C0E0D0E0BB24E32EFF2440
:1027E0006B01CE0CDF1CD6012C91E80EF91ED7012F
:1027F000EC90FF24E21AF108C0902201DD24CE14EF
:10280000DF04D0F4B394B0912101BB16B1F4C4300D
:10281000D10598F4DA01AC0FBD1F2C93DE01AA0F8D
:10282000BB1FA00FB11F22E1329F7001112411962E
:10283000FC92EE9221963C5DBB243F5F383C70F2E7
:10284000DA0113968C911397882309F4FFCF84E063
:10285000208531852115310531F046815781241BB2
:10286000350B3187208781503297882389F7DF9194
:10287000CF911F910F91FF90EF90DF90CF90BF907D
:102880000895CF93DF93883C18F0613009F44AC073
:10289000662309F447C02091600530916105C82F77
:1028A000D0E02C173D07B0F01DC08BEA93E061E04B
:1028B00041E00E94AE08809160059091610501960B
:1028C00090936105809360056AE070E080E090E09D
:1028D0000E94520580916005909161058C179D07BB
:1028E00021F720C0C217D307B0F01CC08BEA93E0D9
:1028F00062E041E00E94AE08809160059091610520
:10290000019790936105809360056AE070E080E034
:1029100090E00E94520580916005909161058C17AE
:102920009D0721F780916005DF91CF910895EF9287
:10293000FF920F931F93CF93DF93F82E00E010E0E8
:10294000C0E0D0E08F2D0E94C1050F5F1F4F8C1B90
:102950009D0BB8010E941421C60FD71F0436110524
:1029600089F7CE01DF91CF911F910F91FF90EF90EA
:10297000089582E090E00E94971483E090E00E9426
:10298000971480E090E0089590E00E9497149C01D5
:1029900083E02533380718F024E130E00DC02039FA
:1029A000310518F426E930E007C027583F4FF901F8
:1029B000249130E0220F331FC9010895EF92FF9256
:1029C0000F931F93CF93DF93182F062FE12EE7016C
:1029D0007E01F92EE70112C083E00E94C41489939E
:1029E00080E060E00E9441148F5F61E00E9441142A
:1029F00064E670E080E090E00E945205AE01411B69
:102A0000401750F380E061E00E944114DF91CF91C4
:102A10001F910F91FF90EF900895EF92FF920F9307
:102A20001F93CF93DF93EC0183EA93E00E943D185C
:102A30008C0102C0C051DE408EE0C031D807D0F713
:102A40003DC083EA93E00E943D188C01C817D90766
:102A500079F07E01E81AF90A9BE4E916F10440F0E6
:102A600087E9E816F10438F066E9E62EF12C03C098
:102A70005BE4E52EF12C89EA93E06E2D0E941408A8
:102A800087EA93E06E2D0E941408C017D10748F41E
:102A900089EA93E062E00E94850A87EA93E061E0B8
:102AA0000BC00C171D0750F489EA93E061E00E9407
:102AB000850A87EA93E062E00E94850AC017D10781
:102AC00039F0CE01801B910B8333910508F0B9CF0B
:102AD00087EA93E064E00E94850A89EA93E064E073
:102AE0000E94850ADF91CF911F910F91FF90EF9087
:102AF0000895EF92FF920F931F93CF93DF93082FC8
:102B0000CB01969587950E940D1583EA93E00E946C
:102B10003D18EC0164E670E080E090E00E94520510
:102B200083E00E94C4149C0110E022C080E060E0B9
:102B30000E94411492E1899F7001112480E061E0BC
:102B40000E944114C701969587958C0F9D1F0E9486
:102B50000D1583EA93E00E943D18EC0164E670E0F5
:102B600080E090E00E94520583E00E94C4149C0122
:102B7000201B310B37FF03C0309521953F4F8091CB
:102B8000220190E0821793078CF2CE01C2960E9438
:102B90000D15DF91CF911F910F91FF90EF90089548
:102BA00087EA93E064E00E94850A89EA93E064E0A2
:102BB0000E94850A08952F923F924F925F926F92E2
:102BC0007F928F929F92AF92BF92CF92DF92EF92BD
:102BD000FF920F931F93DF93CF93CDB7DEB72C9760
:102BE0000FB6F894DEBF0FBECDBF5C017A83698358
:102BF0003E832D8318870F83423008F442E0042F70
:102C000010E0C80101979A878987FC01EA0DFB1D36
:102C1000608170E080E090E00E94741E6B017C0196
:102C2000F501E00FF11F3297608170E080E090E0E5
:102C30000E94741E8B01B82EA92E6C2D7D2D8E2D19
:102C40009F2D2C2D3D2D4E2D5F2D0E948E1B962EDF
:102C5000472E382E292E9501602F712F832F922F0A
:102C6000F501202F312F4F2F5E2F0E948E1B862EB5
:102C7000772E682E592EA985BA85AA0FBB1FE98128
:102C8000FA81AE0FBF1F6D917C9180E090E00E94B1
:102C9000741E2BED3FE049E450E40E948E1B20E0BF
:102CA00030E044E353E40E94861C0E94F4216983CF
:102CB0007A838B839C83C101492D542D692F782FF2
:102CC000CB01BA01282D372D462D552D0E94611BB1
:102CD00069877A878B879C879501602F712F832F57
:102CE000922F20E030E040E050EC0E948E1B2C2D13
:102CF0003D2D4E2D5F2D0E948E1B29813A814B81E7
:102D00005C810E948E1B9B01AC0169857A858B8555
:102D10009C850E94611B0E9426230E94B419962E56
:102D2000ED81FE81608370E080E090E00E94741E7F
:102D30009B01AC010E948E1BA62FF72FE82F292F95
:102D4000A301682D752F842F952DAF014A2E552E86
:102D5000642E722EA30192010E94611B2B013C0183
:102D60006C2D7D2D8E2D9F2DA70196010E948E1B0F
:102D70009B01AC01C301B2010E94301B6B017C01BD
:102D80009501602F712F832F922FF501202F312F66
:102D90004F2F5E2F0E94611B2B013C01292D30E03B
:102DA000B901882777FD8095982F0E94C41D9B014B
:102DB000AC01C301B2010E948E1B9B01AC01C70193
:102DC000B6010E94861C0E94862120EE3EE245E666
:102DD00052E40E948E1B20E030E040E251E40E9469
:102DE0008E1B0E94B419EF81F885718360832C9645
:102DF0000FB6F894DEBF0FBECDBFCF91DF911F910C
:102E00000F91FF90EF90DF90CF90BF90AF909F9089
:102E10008F907F906F905F904F903F902F9008958C
:102E20009F92AF92BF92CF92DF92EF92FF920F9359
:102E30001F93CF93DF938C01962E0E941E059B015A
:102E4000AC018091620590916305A0916405B091F9
:102E50006505281739074A075B0740F41092620599
:102E60001092630510926405109265050E941E057C
:102E7000209162053091630540916405509165058C
:102E8000621B730B840B950B6B30710581059105EB
:102E900008F4A6C0265F3F4F4F4F5F4F2093620557
:102EA00030936305409364055093650583EA93E08E
:102EB0000E943D185C01B80180E090E00E94741E01
:102EC0007B018C01B50180E090E00E94741E9B01A3
:102ED000AC01C801B7010E94A6185B016C0120E09B
:102EE00030E04AEF52E40E94611B7B018C017F2D90
:102EF000912F20E030E048E452E40E94941D8823A2
:102F00001CF402E310E016C06E2D7F2D802F912F50
:102F100020E030E048E453E40E94341D18161CF40D
:102F200008EC10E007C06E2D7F2D802F912F0E949E
:102F3000211E8B0160E070E08AEF92E4A60195010A
:102F40000E94301BD62EA72E7C019F2D20E030E062
:102F500048E452E40E94941D88231CF4C2E3D0E0AC
:102F600016C06D2D7A2D8E2D9F2D20E030E048E487
:102F700053E40E94341D18161CF4C8ECD0E007C0BE
:102F80006D2D7A2D8E2D9F2D0E94211EEB019920F3
:102F900099F087EA93E0602F0E94140889EA93E091
:102FA0006C2F0E94140887EA93E062E00E94850A71
:102FB00089EA93E062E012C087EA93E06C2F0E94F6
:102FC000140889EA93E0602F0E94140887EA93E0CE
:102FD00061E00E94850A89EA93E061E00E94850A27
:102FE000DF91CF911F910F91FF90EF90DF90CF90E5
:102FF000BF90AF909F900895FC01828193810895C6
:10300000EF92FF920F931F93CF93DF93EC018C010C
:10301000698170E06E7F70707E019F2D0E943D116E
:10302000CE0163E470E00E94C011CE010E94FD1148
:10303000EE24FF2468EE73E080E090E00E945205E9
:103040000894E11CF11C24E1E216F10499F769816E
:1030500070E06E7F7070C8010E943D11C80165E488
:1030600070E00E94C011C8010E94FD11DF91CF9154
:103070001F910F91FF90EF900895EF92FF920F93A1
:103080001F93CF93DF93EC018C017E019F2D69810B
:103090000E943311CE0161E470E00E94C011CE01A4
:1030A0000E94FD1166E070E080E090E00E94520511
:1030B0006981CE0170E042E050E00E941A12C8011E
:1030C0000E9447118823D9F3C8010E944D11F82EA0
:1030D000C8010E9447118823D9F3C8010E944D11ED
:1030E0005F2D40E0282F30E0242B352B3B832A83B3
:1030F000C901DF91CF911F910F91FF90EF9008953B
:10310000EF92FF92CF93DF93EC017E019F2D0E94FF
:10311000321181E28983CE010E941D12DF91CF918D
:10312000FF90EF900895EF92FF92CF93DF93EC0121
:103130007E019F2D0E94321181E28983CE010E947F
:103140001D12DF91CF91FF90EF9008952F923F9243
:103150004F925F926F927F928F929F92AF92BF92A7
:10316000CF92DF92EF92FF920F931F9359016A0162
:103170000E94301B7B018C017F2D912F20E030E0DD
:1031800041EE54E40E94341D18165CF46E2D7F2D20
:10319000802F912F20E030E041E655E40E94301B63
:1031A00016C06E2D7F2D802F912F20E030E041EE54
:1031B00054EC0E94941D882364F46E2D7F2D802F83
:1031C000912F20E030E041E655E40E94611B7B0135
:1031D0008C016E2D7F2D802F912F26E636E646E658
:1031E0005FE30E948E1B562E472E382E292EA201F9
:1031F0009101852F942FA32FB22F80937005909368
:103200007105A0937205B09373056E2D7F2D802FED
:10321000912F209168053091690540916A05509180
:103220006B050E94611B7B018C01862F9F2DA02FB7
:10323000B12F8093680590936905A0936A05B093B8
:103240006B056E2D7F2D802F912F20E030E44CE117
:1032500056E40E94341D18162CF480E090E4ACE192
:10326000B6E410C06E2D7F2D802F912F20E030E42A
:103270004CE156EC0E94941D882364F480E090E4B5
:10328000ACE1B6EC8093680590936905A0936A055C
:10329000B0936B05609168057091690580916A052E
:1032A00090916B052AE037ED43E25CE30E948E1BB0
:1032B0008B01F82EE92E9701862F912FA32FB22F85
:1032C0008093740590937505A0937605B093770568
:1032D000C601B50120916C0530916D0540916E05D8
:1032E00050916F050E94301B962E872E782E692EE6
:1032F000A4019301852F942FA32FB22F80937805DB
:1033000090937905A0937A05B0937B05A0926C0504
:10331000B0926D05C0926E05D0926F05A201910129
:10332000652F742D832F922DF701202F312F4F2FD2
:103330005E2F0E94611BD401F3012B2F3A2F4F2FD8
:103340005E2F0E94301B1F910F91FF90EF90DF9036
:10335000CF90BF90AF909F908F907F906F905F9035
:103360004F903F902F900895EF92FF920F931F93ED
:103370007B018C0120E030E040E05FE40E94641DAE
:1033800088238CF0C801B70120E030E040E05FE422
:103390000E94301B0E94211E9B01AC012050304036
:1033A0004040504806C0C801B7010E94211E9B0141
:1033B000AC01B901CA011F910F91FF90EF900895E0
:1033C000A0E0B0E0E6EEF9E10C944B21FC012B010A
:1033D000EA018081823008F43DC1DB019C9192308A
:1033E00008F437C1843069F4943009F033C1918115
:1033F00011968C911197981709F42CC1E3E2F1E032
:1034000029C1943009F425C19230A9F4823009F021
:1034100021C19F0188E0D9010D909D01DA010D9233
:10342000AD018150C1F7D20111968C911197918114
:10343000892389830CC1823009F40BC18281938175
:10344000DB0112964D915C911397E480F580068123
:1034500017811496AD90BD90CD90DC9017979C018C
:10346000241B350BB90137FF04C066277727621B81
:10347000730B603271050CF062C0121613066CF506
:1034800035014601062E04C096948794779467947C
:103490000A94D2F721E030E040E050E004C0220F6F
:1034A000331F441F551F6A95D2F7215030404040CA
:1034B00050402A213B214C215D2121153105410538
:1034C000510521F021E030E040E050E059016A016F
:1034D000A628B728C828D9283DC021153105D1F123
:1034E000860F971F37014801062E04C096948794D3
:1034F000779467940A94D2F721E030E040E050E0FE
:1035000004C0220F331F441F551F6A95D2F7215064
:103510003040404050402E213F214023512321156F
:1035200031054105510521F021E030E040E050E057
:1035300079018A01E628F728082919290BC04817BC
:1035400059072CF0CA01EE24FF24870103C0AA24E6
:10355000BB2465012181F2013181231709F44AC09E
:10356000222349F0A60195012E193F09400B510B6A
:1035700079018A0104C0EA18FB080C091D0917FD2E
:103580000CC019829B838A83EC82FD820E831F8389
:103590008C819D81AE81BF811AC021E029839B83EC
:1035A0008A8388279927DC018E199F09A00BB10B0C
:1035B0008C839D83AE83BF83EBCF880F991FAA1F97
:1035C000BB1F2A813B81215030403B832A839C01D1
:1035D000AD0121503040404050402F3F6FEF360743
:1035E0006FEF46076FE3560740F38C839D83AE83EE
:1035F000BF830BC029839B838A83EA0CFB1C0C1DB1
:103600001D1DEC82FD820E831F8383E088832C8145
:103610003D814E815F8157FF1AC0C901AA2797FDDE
:10362000A095BA2F81709070A070B0705695479594
:1036300037952795822B932BA42BB52B8C839D83B9
:10364000AE83BF838A819B8101969B838A83FE011F
:1036500001C0F201CF01CDB7DEB7E0E10C946721E4
:10366000A0E2B0E0E6E3FBE10C94552169837A83A4
:103670008B839C832D833E834F835887E9E0EE2E16
:10368000F12CEC0EFD1ECE010196B7010E94132015
:103690008E010F5E1F4FCE010596B8010E941320C8
:1036A0008A8991E089278A8BC701B801AE01475EFC
:1036B0005F4F0E94E0190E94441FA096E6E00C9420
:1036C0007121A0E2B0E0E7E6FBE10C9455216983AB
:1036D0007A838B839C832D833E834F835887F9E0C5
:1036E000EF2EF12CEC0EFD1ECE010196B7010E94CB
:1036F00013208E010F5E1F4FCE010596B8010E9468
:103700001320C701B801AE01475E5F4F0E94E01968
:103710000E94441FA096E6E00C947121A0E2B0E064
:10372000E4E9FBE10C94492169837A838B839C83D0
:103730002D833E834F835887CE010196BE01675F7C
:103740007F4F0E941320CE010596BE016F5E7F4F12
:103750000E9413209985923088F089898230C8F0C0
:10376000943019F4823051F404C0843029F492303A
:1037700081F483E291E0C4C0923049F480E02A856C
:103780009A89291381E08A87CE010996B9C08230CF
:1037900049F480E02A859A89291381E08A8BCE0139
:1037A0004196AEC06D847E848F849888AD88BE8833
:1037B000CF88D88C60E070E080E090E0DC01EE24FF
:1037C000FF24870120E030E0A901F301E170F070EF
:1037D0003097C9F02A0D3B1D4C1D5D1D8E0D9F1DA0
:1037E000A01FB11F2224332421012A153B054C05BB
:1037F0005D0528F4E1E02E2E312C412C512C820D58
:10380000931DA41DB51DEE0CFF1C001F111FD7FE3C
:1038100009C0E1E02E2E312C412C512CE228F32856
:10382000042915296F5F7F4F6032710549F0AA0C9A
:10383000BB1CCC1CDD1C9694879477946794C5CFF1
:103840006B897C89EB85FC856E0F7F1F6E5F7F4FD8
:103850007C8F6B8F1A8E7A856A89761711F061E0FA
:103860006A8F6B8D7C8D10C0FC01E170F070309719
:1038700029F056954795379527955068B695A795A1
:10388000979587956F5F7F4FB7FDEECF0CC0880F80
:10389000991FAA1FBB1F57FD8160220F331F441FB2
:1038A000551F615070408030E0E09E07E0E0AE07B9
:1038B000E0E4BE0760F36B8F7C8F6FE7E62EF12CA0
:1038C000012D112DE822F9220A231B2360E4E616BC
:1038D000F1040105110561F487FD0AC021153105C8
:1038E0004105510529F0805C9F4FAF4FBF4F807855
:1038F0008D8F9E8FAF8FB8A383E0898FCE014996BD
:103900000E94441FA096E2E10C946521A8E1B0E07A
:10391000ECE8FCE10C94512169837A838B839C83CE
:103920002D833E834F8358878E01075F1F4FCE0143
:103930000196B8010E94132081E1E82EF12CEC0ED3
:10394000FD1ECE010596B7010E9413209985923085
:1039500008F483C08989823010F487017EC02A85EB
:103960003A8923272A87943011F0923031F498173E
:1039700009F070C003E211E070C0843039F41D8694
:103980001E861F86188A1C861B8667C0823019F423
:1039900084E0898762C08B859C852B893C89821B4A
:1039A000930B9C878B872D853E854F855889AD88E5
:1039B000BE88CF88D88C2A153B054C055D0538F4A8
:1039C000220F331F441F551F01979C878B8760E090
:1039D00070E0E12CF12C012DA0E41A2F80E090E0A2
:1039E000DC012A153B054C055D0540F08E299F2919
:1039F000A02BB12B2A193B094C095D091695079597
:103A0000F794E794220F331F441F551F6F5F7F4FBA
:103A10006F31710531F76FE7E62EF12C012D112D75
:103A2000E822F9220A231B2360E4E616F1040105CB
:103A3000110561F487FD0AC02115310541055105C5
:103A400029F0805C9F4FAF4FBF4F80788D879E8756
:103A5000AF87B88B8E01075F1F4FC8010E94441FBC
:103A60006896EAE00C946D21A8E1B0E0EAE3FDE19C
:103A70000C94552169837A838B839C832D833E83A9
:103A80004F83588789E0E82EF12CEC0EFD1ECE0105
:103A90000196B7010E9413208E010F5E1F4FCE01C9
:103AA0000596B8010E9413208985823040F08989EB
:103AB000823028F0C701B8010E94822001C08FEF38
:103AC0006896E6E00C947121A8E1B0E0EAE6FDE139
:103AD0000C94552169837A838B839C832D833E8349
:103AE0004F83588789E0E82EF12CEC0EFD1ECE01A5
:103AF0000196B7010E9413208E010F5E1F4FCE0169
:103B00000596B8010E9413208985823040F089898A
:103B1000823028F0C701B8010E94822001C08FEFD7
:103B20006896E6E00C947121A8E1B0E0EAE9FDE1D5
:103B30000C94552169837A838B839C832D833E83E8
:103B40004F83588789E0E82EF12CEC0EFD1ECE0144
:103B50000196B7010E9413208E010F5E1F4FCE0108
:103B60000596B8010E9413208985823040F089892A
:103B7000823028F0C701B8010E94822001C081E094
:103B80006896E6E00C947121A8E0B0E0EAECFDE173
:103B90000C94532123E029839B01AC01222757FD7C
:103BA00023953327442755272A83611571058105FD
:103BB000910519F482E089833CC02223A9F060308A
:103BC00020E0720720E0820720E8920729F460E0F5
:103BD00070E080E09FEC31C0EE24FF248701E61AFC
:103BE000F70A080B190B02C07B018C018EE1C82E6D
:103BF000D12CDC82CB82ED82FE820F831887C80134
:103C0000B7010E94EC1E9C01215030401216130691
:103C100084F4022E04C0EE0CFF1C001F111F0A9436
:103C2000D2F7ED82FE820F831887C21AD30ADC8294
:103C3000CB82CE0101960E94441F2896E8E00C94A6
:103C40006F21ACE0B0E0E7E2FEE10C94592169831A
:103C50007A838B839C83CE010196BE016B5F7F4F7D
:103C60000E9413208D81823061F1823050F18430C6
:103C700021F48E81882349F12DC02F81388537FDAD
:103C800020C06E812F3131051CF06623F1F022C077
:103C90008EE190E0821B930B29853A854B855C85EC
:103CA00004C056954795379527958A95D2F7662390
:103CB000A9F050954095309521953F4F4F4F5F4F5C
:103CC0000DC020E030E0A90109C02FEF3FEF4FEF1A
:103CD0005FE704C020E030E040E050E8B901CA01ED
:103CE0002C96E2E00C947521A8E0B0E0EAE7FEE152
:103CF0000C9453217B018C011A8261157105810599
:103D0000910519F482E089835FC083E089838EE1A5
:103D1000C82ED12CDC82CB82ED82FE820F831887E5
:103D2000C801B7010E94EC1E9C012150304037FFB2
:103D300038C0EE27FF27E21BF30B40E050E0BA014A
:103D400081E090E0A0E0B0E00E2E04C0880F991F43
:103D5000AA1FBB1F0A94D2F70197A109B1098E21AE
:103D60009F21A023B1230097A105B10521F041E0D7
:103D700050E060E070E004C016950795F794E79472
:103D8000EA95D2F7E42AF52A062B172BED82FE825C
:103D90000F8318878EE190E0821B930B9C838B83AB
:103DA00013C02115310581F0022E04C0EE0CFF1C5A
:103DB000001F111F0A94D2F7ED82FE820F8318872D
:103DC000C21AD30ADC82CB82CE0101960E94441F24
:103DD0002896E8E00C946F21AF92BF92CF92DF92C9
:103DE000EF92FF920F931F937B018C0180E0E81606
:103DF00080E0F80681E0080780E0180780F48FEF84
:103E0000E816F1040105110531F028F088E090E092
:103E1000A0E0B0E016C080E090E0DC0112C080E0DD
:103E2000E81680E0F80680E0080781E0180728F02F
:103E300088E190E0A0E0B0E004C080E190E0A0E084
:103E4000B0E020E230E040E050E0281B390B4A0BA4
:103E50005B0B5701680104C0D694C794B794A7942C
:103E60008A95D2F7F501E55DFE4F8081281B310967
:103E700041095109C9011F910F91FF90EF90DF9007
:103E8000CF90BF90AF900895CF92DF92EF92FF92C4
:103E90000F931F93FC012481358146815781018155
:103EA0008081823020F440618FEF90E0A2C08430A6
:103EB00009F49AC0823019F480E090E097C021158F
:103EC00031054105510519F480E090E092C08281EE
:103ED00093816FEF823896070CF058C062E87FEF4D
:103EE000681B790B6A31710524F020E030E0A901EC
:103EF0002AC069017A01062E04C0F694E794D7948B
:103F0000C7940A94D2F781E090E0A0E0B0E004C04A
:103F1000880F991FAA1FBB1F6A95D2F70197A109A5
:103F2000B10982239323A423B5230097A105B105EA
:103F300021F081E090E0A0E0B0E09C01AD012C29EF
:103F40003D294E295F29DA01C9018F779070A07051
:103F5000B07080349105A105B10539F427FF09C07F
:103F6000205C3F4F4F4F5F4F04C0215C3F4F4F4F8E
:103F70005F4F80E090E0203060E0360760E0460769
:103F800060E4560748F181E090E026C08038910552
:103F90005CF581589F4F7FE7C72ED12CE12CF12C87
:103FA000C222D322E422F52260E4C616D104E10441
:103FB000F10439F427FF09C0205C3F4F4F4F5F4F9A
:103FC00004C0215C3F4F4F4F5F4F57FF05C05695D0
:103FD000479537952795019697E0569547953795DC
:103FE00027959A95D1F705C08FEF90E020E030E05B
:103FF000A901782F779577277795142F1F77602F52
:104000006795662767958695F12FF72BE82FE62BA6
:10401000622F732F8F2F9E2F1F910F91FF90EF9084
:10402000DF90CF900895FC01DB01208131818281F6
:10403000482F4F7750E0982F991F9927991F638138
:10404000862F880F892B90E0661F6627661F1196C2
:104050006C931197009769F52115310541055105BC
:1040600011F482E02FC082E89FEF13969C938E9309
:10407000129767E0220F331F441F551F6A95D1F72F
:1040800083E08C930DC0220F331F441F551F1296DF
:104090008D919C911397019713969C938E931297F1
:1040A000203080E0380780E0480780E4580758F364
:1040B00022C08F3F910579F4211531054105510545
:1040C00019F484E08C93089544FF03C081E08C933D
:1040D00012C01C9210C08F57904013969C938E93E1
:1040E000129783E08C9387E0220F331F441F551FE4
:1040F0008A95D1F7506414962D933D934D935C931C
:1041000017970895EF92FF920F931F93FC01DB0125
:104110008081823008F447C09C91923008F443C0FB
:10412000843051F481819430A1F511962C9111972E
:1041300030E0281B31093FC0943021F0823031F447
:104140009230B9F111968C9111972BC081819230E8
:1041500001F111969C9111978917D9F442815381ED
:1041600012962D913C9113972417350794F042171E
:104170005307BCF0E480F5800681178114962D91D9
:104180003D914D915C9117972E153F0540075107C2
:1041900018F4882341F00AC0E216F3060407150755
:1041A00040F4882319F021E030E005C02FEF3FEF05
:1041B00002C020E030E0C9011F910F91FF90EF9005
:1041C0000895629FD001739FF001829FE00DF11D61
:1041D000649FE00DF11D929FF00D839FF00D749F81
:1041E000F00D659FF00D9927729FB00DE11DF91F2D
:1041F000639FB00DE11DF91FBD01CF01112408958A
:10420000AA1BBB1B51E107C0AA1FBB1FA617B707FC
:1042100010F0A61BB70B881F991F5A95A9F7809518
:104220009095BC01CD01089597FB092E07260AD071
:1042300077FD04D0E5DF06D000201AF47095619573
:104240007F4F0895F6F7909581959F4F0895A1E2CD
:104250001A2EAA1BBB1BFD010DC0AA1FBB1FEE1F00
:10426000FF1FA217B307E407F50720F0A21BB30B4B
:10427000E40BF50B661F771F881F991F1A9469F7C7
:1042800060957095809590959B01AC01BD01CF0123
:1042900008952F923F924F925F926F927F928F92EA
:1042A0009F92AF92BF92CF92DF92EF92FF920F93C5
:1042B0001F93CF93DF93CDB7DEB7CA1BDB0B0FB6CF
:1042C000F894DEBF0FBECDBF09942A88398848888C
:1042D0005F846E847D848C849B84AA84B984C88422
:1042E000DF80EE80FD800C811B81AA81B981CE0F19
:1042F000D11D0FB6F894DEBF0FBECDBFED010895FE
:10430000EE0FFF1F0590F491E02D09949F939F7786
:104310006ED00F9000203AF49058A2EA2AED3FE0C8
:1043200049E450E40ED0E2C0ABD030F0B0D020F081
:1043300031F49F3F11F41EF47BC00EF4E095E7FBCF
:1043400071C0E92FF5D080F3BA17620773078407AD
:10435000950718F071F49EF50DC10EF4E0950B2E43
:10436000BA2FA02D0B01B90190010C01CA01A001C7
:104370001124FF27591B99F0593F50F4503E68F122
:104380001A16F040A22F232F342F4427585FF3CF63
:10439000469537952795A795F0405395C9F77EF434
:1043A0001F16BA0B620B730B840BBAF09150A1F07D
:1043B000FF0FBB1F661F771F881FC2F70EC0BA0F03
:1043C000621F731F841F48F4879577956795B7958B
:1043D000F7959E3F08F0B3CF9395880F08F0992783
:1043E000EE0F9795879508955AD0E39590C0DF9387
:1043F000CF931F930F938B01EC01E8E6F0E01BD005
:1044000075D09801AE018B01EC0160E070E080E8AE
:104410009FE326D91BD19801AE010F911F91CF9137
:10442000DF91B9C097F99F6780E870E060E0089578
:104430009FEF80EC0895DF93CF931F930F93FF922C
:10444000EF92DF927B018C01689405C0DA2EEF01B8
:10445000A2D0FE01E894A591259135914591559101
:10446000AEF3EF016EDFFE019701A801DA9479F750
:10447000DF90EF90FF900F911F91CF91DF91089502
:1044800000240A9416161706180609060895002433
:104490000A9412161306140605060895C9CF50D0C3
:1044A000E8F3E894E0E0BB279F57F0F02AED3FE007
:1044B00049EC06C0EE0FBB0F661F771F881F28F060
:1044C000B23A62077307840728F0B25A620B730B83
:1044D000840BE3959A9572F7803830F49A95BB0F68
:1044E000661F771F881FD2F79048F0C0092E0394EB
:1044F000000C11F4882352F0BB0F40F4BF2B11F4D1
:1045000060FF04C06F5F7F4F8F4F9F4F0895EF9301
:10451000E0FF06C0A2EA2AED3FE049EC5FEB11DFC5
:10452000E5DF0F90039401FC9058E0E9F0E0E1C072
:1045300057FD9058440F551F59F05F3F71F0479554
:10454000880F97FB991F61F09F3F79F08795089539
:10455000121613061406551FF2CF4695F1DF08C058
:10456000161617061806991FF1CF86957105610575
:1045700008940895E894BB2766277727CB0197F91D
:1045800008957EDF28F083DF18F0952309F04ACFE5
:104590004FCF1124F0CFCCDFA0F3959FD1F3950F2F
:1045A00050E0551F629FF001729FBB27F00DB11DB7
:1045B000639FAA27F00DB11DAA1F649F6627B00D47
:1045C000A11D661F829F2227B00DA11D621F739F30
:1045D000B00DA11D621F839FA00D611D221F749F3E
:1045E0003327A00D611D231F849F600D211D822F85
:1045F000762F6A2F11249F5750408AF0E1F08823CC
:104600004AF0EE0FFF1FBB1F661F771F881F9150D8
:104610005040A9F79E3F510570F004CFACCF5F3FEB
:10462000ECF3983EDCF3869577956795B795F7950B
:10463000E7959F5FC1F7FE2B880F911D9695879593
:1046400097F9089511F40EF4F3CE3EC079DFD0F35C
:104650009923D9F3CEF39F57550B87FF43D00024FE
:10466000A0E640EA900180585695979528F4805C22
:10467000660F771F881F20F026173707480730F48A
:10468000621B730B840B202931294A2BA6951794A2
:104690000794202531254A2758F7660F771F881F72
:1046A00020F026173707480730F4620B730B840B92
:1046B000200D311D411DA09581F7B901842F91581E
:1046C000880F9695879508959F3F31F0915020F47B
:1046D000879577956795B795880F911D96958795DE
:1046E00097F9089591505040660F771F881FD2F7B1
:1046F00008959F938F937F936F93FF93EF939B0105
:10470000AC010CD8EF91FF9196DE2F913F914F9124
:104710005F9104C8EF92FF920F931F93CF93DF93A3
:10472000689F8001699F100D789F100D1124C801AA
:104730000E94AF23E82EE7017E01F92EE701E11484
:10474000F10431F08E2D60E070E0A8010E94E824B1
:104750007E01CE01CDB7DEB7E6E00C947121EF9279
:10476000FF920F931F93CF93DF938230910510F444
:1047700082E090E0C0917E05D0917F0520E030E09E
:1047800040E050E029C06881798168177907D8F046
:104790006817790779F48A819B812115310521F009
:1047A000F9019383828304C090937F0580937E05F3
:1047B000DE012AC04115510519F06417750718F478
:1047C000FE01AB01D9019E017A816B81E72EE701E1
:1047D0007E01062FF62EE7012097A9F64115510517
:1047E000F9F0481B590B4430510580F482819381C4
:1047F000109729F013969C938E93129704C0909370
:104800007F0580937E05DF01129645C0DF01A40F6E
:10481000B51F8D939D9342505040518340833BC0C0
:1048200020917C0530917D052115310541F42091C1
:104830002D0230912E0230937D0520937C0520912E
:104840002F02309130022115310541F42DB73EB7CA
:1048500040912B0250912C02241B350BA0917C051A
:10486000B0917D05A217B307A0F42A1B3B0B2817B4
:10487000390778F0AC014E5F5F4F2417350748F0D9
:104880004A0F5B1F50937D0540937C058D939D934C
:1048900002C0A0E0B0E0CD01CDB7DEB7E6E00C94F9
:1048A0007121CF93DF93009709F48FC0FC013297F9
:1048B0001382128260917E0570917F0561157105EA
:1048C00081F420813181280F391F80917C059091DE
:1048D0007D058217930761F5F0937D05E0937C05D4
:1048E00074C0EB0180E090E0CE17DF0740F42A812E
:1048F0003B81CE012115310501F1E901F5CFD383CB
:10490000C283DF014D915D919D01240F351FC217B8
:10491000D30761F428813981240F351F2E5F3F4F63
:10492000318320832A813B8133832283009729F4BA
:10493000F0937F05E0937E0548C0DC011396FC935D
:10494000EE931297EC0149915991C40FD51FEC17C2
:10495000FD0779F420813181240F351F2E5F3F4FF1
:1049600011963C932E932281338113963C932E9380
:104970001297E0E0F0E0DB0112968D919C91139785
:10498000009721F0E62FF72FBC01F5CF9B012E5F9A
:104990003F4FDB018D919C911197820F931F4091A6
:1049A0007C0550917D054817590779F4309729F413
:1049B00010927F0510927E0502C01382128222504F
:1049C000304030937D0520937C05DF91CF91089591
:1049D000DC0101C06D9341505040E0F70895F99912
:1049E000FECF92BD81BDF89A992780B50895262FF4
:1049F000F999FECF1FBA92BD81BD20BD0FB6F894C4
:0E4A0000FA9AF99A0FBE01960895F894FFCF26
:104A0E00010019324A62788DA2B4C5D4E1ECF4FAF1
:104A1E00FDFF00000000C50DD80DF20D140E250E81
:104A2E00FF040F000000000000000000010202035E
:104A3E000303030404040404040404050505050526
:104A4E000505050505050505050505060606060603
:104A5E0006060606060606060606060606060606E8
:104A6E0006060606060606060606060707070707D3
:104A7E0007070707070707070707070707070707B8
:104A8E0007070707070707070707070707070707A8
:104A9E000707070707070707070707070707070798
:104AAE000707070707070707070707080808080883
:104ABE000808080808080808080808080808080868
:104ACE000808080808080808080808080808080858
:104ADE000808080808080808080808080808080848
:104AEE000808080808080808080808080808080838
:104AFE000808080808080808080808080808080828
:104B0E000808080808080808080808080808080817
:104B1E000808080808080808080808080808080807
:104B2E00080808080808080808080820008005007A
:024B3E00000075
:00000001FF
